{
  "_format": "hh-sol-artifact-1",
  "contractName": "SideAStarvingNFT",
  "sourceName": "contracts/SideAStarvingNFT.sol",
  "abi": [
    {
      "inputs": [],
      "stateMutability": "nonpayable",
      "type": "constructor"
    },
    {
      "anonymous": false,
      "inputs": [
        {
          "indexed": true,
          "internalType": "address",
          "name": "owner",
          "type": "address"
        },
        {
          "indexed": true,
          "internalType": "address",
          "name": "approved",
          "type": "address"
        },
        {
          "indexed": true,
          "internalType": "uint256",
          "name": "tokenId",
          "type": "uint256"
        }
      ],
      "name": "Approval",
      "type": "event"
    },
    {
      "anonymous": false,
      "inputs": [
        {
          "indexed": true,
          "internalType": "address",
          "name": "owner",
          "type": "address"
        },
        {
          "indexed": true,
          "internalType": "address",
          "name": "operator",
          "type": "address"
        },
        {
          "indexed": false,
          "internalType": "bool",
          "name": "approved",
          "type": "bool"
        }
      ],
      "name": "ApprovalForAll",
      "type": "event"
    },
    {
      "anonymous": false,
      "inputs": [
        {
          "indexed": false,
          "internalType": "address",
          "name": "to",
          "type": "address"
        },
        {
          "indexed": false,
          "internalType": "uint256",
          "name": "tokenId",
          "type": "uint256"
        }
      ],
      "name": "Mint",
      "type": "event"
    },
    {
      "anonymous": false,
      "inputs": [
        {
          "indexed": true,
          "internalType": "address",
          "name": "previousOwner",
          "type": "address"
        },
        {
          "indexed": true,
          "internalType": "address",
          "name": "newOwner",
          "type": "address"
        }
      ],
      "name": "OwnershipTransferred",
      "type": "event"
    },
    {
      "anonymous": false,
      "inputs": [
        {
          "indexed": true,
          "internalType": "address",
          "name": "from",
          "type": "address"
        },
        {
          "indexed": true,
          "internalType": "address",
          "name": "to",
          "type": "address"
        },
        {
          "indexed": true,
          "internalType": "uint256",
          "name": "tokenId",
          "type": "uint256"
        }
      ],
      "name": "Transfer",
      "type": "event"
    },
    {
      "inputs": [
        {
          "internalType": "address",
          "name": "to",
          "type": "address"
        },
        {
          "internalType": "uint256",
          "name": "tokenId",
          "type": "uint256"
        }
      ],
      "name": "approve",
      "outputs": [],
      "stateMutability": "nonpayable",
      "type": "function"
    },
    {
      "inputs": [
        {
          "internalType": "address",
          "name": "owner",
          "type": "address"
        }
      ],
      "name": "balanceOf",
      "outputs": [
        {
          "internalType": "uint256",
          "name": "",
          "type": "uint256"
        }
      ],
      "stateMutability": "view",
      "type": "function"
    },
    {
      "inputs": [
        {
          "internalType": "address",
          "name": "_address",
          "type": "address"
        }
      ],
      "name": "getAllNftsByAddress",
      "outputs": [
        {
          "internalType": "uint256[]",
          "name": "",
          "type": "uint256[]"
        },
        {
          "internalType": "string[]",
          "name": "",
          "type": "string[]"
        }
      ],
      "stateMutability": "view",
      "type": "function"
    },
    {
      "inputs": [
        {
          "internalType": "uint256",
          "name": "tokenId",
          "type": "uint256"
        }
      ],
      "name": "getApproved",
      "outputs": [
        {
          "internalType": "address",
          "name": "",
          "type": "address"
        }
      ],
      "stateMutability": "view",
      "type": "function"
    },
    {
      "inputs": [
        {
          "internalType": "address",
          "name": "owner",
          "type": "address"
        },
        {
          "internalType": "address",
          "name": "operator",
          "type": "address"
        }
      ],
      "name": "isApprovedForAll",
      "outputs": [
        {
          "internalType": "bool",
          "name": "",
          "type": "bool"
        }
      ],
      "stateMutability": "view",
      "type": "function"
    },
    {
      "inputs": [
        {
          "internalType": "address",
          "name": "to",
          "type": "address"
        },
        {
          "internalType": "string",
          "name": "tokenURISideA",
          "type": "string"
        },
        {
          "internalType": "string",
          "name": "tokenURISideB",
          "type": "string"
        }
      ],
      "name": "mint",
      "outputs": [
        {
          "internalType": "uint256",
          "name": "",
          "type": "uint256"
        }
      ],
      "stateMutability": "nonpayable",
      "type": "function"
    },
    {
      "inputs": [],
      "name": "name",
      "outputs": [
        {
          "internalType": "string",
          "name": "",
          "type": "string"
        }
      ],
      "stateMutability": "view",
      "type": "function"
    },
    {
      "inputs": [],
      "name": "owner",
      "outputs": [
        {
          "internalType": "address",
          "name": "",
          "type": "address"
        }
      ],
      "stateMutability": "view",
      "type": "function"
    },
    {
      "inputs": [
        {
          "internalType": "uint256",
          "name": "tokenId",
          "type": "uint256"
        }
      ],
      "name": "ownerOf",
      "outputs": [
        {
          "internalType": "address",
          "name": "",
          "type": "address"
        }
      ],
      "stateMutability": "view",
      "type": "function"
    },
    {
      "inputs": [],
      "name": "renounceOwnership",
      "outputs": [],
      "stateMutability": "nonpayable",
      "type": "function"
    },
    {
      "inputs": [
        {
          "internalType": "address",
          "name": "from",
          "type": "address"
        },
        {
          "internalType": "address",
          "name": "to",
          "type": "address"
        },
        {
          "internalType": "uint256",
          "name": "tokenId",
          "type": "uint256"
        }
      ],
      "name": "safeTransferFrom",
      "outputs": [],
      "stateMutability": "nonpayable",
      "type": "function"
    },
    {
      "inputs": [
        {
          "internalType": "address",
          "name": "from",
          "type": "address"
        },
        {
          "internalType": "address",
          "name": "to",
          "type": "address"
        },
        {
          "internalType": "uint256",
          "name": "tokenId",
          "type": "uint256"
        },
        {
          "internalType": "bytes",
          "name": "data",
          "type": "bytes"
        }
      ],
      "name": "safeTransferFrom",
      "outputs": [],
      "stateMutability": "nonpayable",
      "type": "function"
    },
    {
      "inputs": [
        {
          "internalType": "address",
          "name": "operator",
          "type": "address"
        },
        {
          "internalType": "bool",
          "name": "approved",
          "type": "bool"
        }
      ],
      "name": "setApprovalForAll",
      "outputs": [],
      "stateMutability": "nonpayable",
      "type": "function"
    },
    {
      "inputs": [
        {
          "internalType": "contract SideBStarvingNFT",
          "name": "_sideB",
          "type": "address"
        }
      ],
      "name": "setSideB",
      "outputs": [],
      "stateMutability": "nonpayable",
      "type": "function"
    },
    {
      "inputs": [],
      "name": "sideB",
      "outputs": [
        {
          "internalType": "contract SideBStarvingNFT",
          "name": "",
          "type": "address"
        }
      ],
      "stateMutability": "view",
      "type": "function"
    },
    {
      "inputs": [
        {
          "internalType": "bytes4",
          "name": "interfaceId",
          "type": "bytes4"
        }
      ],
      "name": "supportsInterface",
      "outputs": [
        {
          "internalType": "bool",
          "name": "",
          "type": "bool"
        }
      ],
      "stateMutability": "view",
      "type": "function"
    },
    {
      "inputs": [],
      "name": "symbol",
      "outputs": [
        {
          "internalType": "string",
          "name": "",
          "type": "string"
        }
      ],
      "stateMutability": "view",
      "type": "function"
    },
    {
      "inputs": [
        {
          "internalType": "uint256",
          "name": "tokenId",
          "type": "uint256"
        }
      ],
      "name": "tokenURI",
      "outputs": [
        {
          "internalType": "string",
          "name": "",
          "type": "string"
        }
      ],
      "stateMutability": "view",
      "type": "function"
    },
    {
      "inputs": [
        {
          "internalType": "address",
          "name": "from",
          "type": "address"
        },
        {
          "internalType": "address",
          "name": "to",
          "type": "address"
        },
        {
          "internalType": "uint256",
          "name": "tokenId",
          "type": "uint256"
        }
      ],
      "name": "transferFrom",
      "outputs": [],
      "stateMutability": "nonpayable",
      "type": "function"
    },
    {
      "inputs": [
        {
          "internalType": "address",
          "name": "newOwner",
          "type": "address"
        }
      ],
      "name": "transferOwnership",
      "outputs": [],
      "stateMutability": "nonpayable",
      "type": "function"
    }
  ],
  "bytecode": "0x60806040523480156200001157600080fd5b506040518060400160405280601881526020017f5374617276696e67204368696c6472656e2053696465204100000000000000008152506040518060400160405280600381526020017f5354410000000000000000000000000000000000000000000000000000000000815250816000908051906020019062000096929190620001a6565b508060019080519060200190620000af929190620001a6565b505050620000d2620000c6620000d860201b60201c565b620000e060201b60201c565b620002bb565b600033905090565b6000600760009054906101000a900473ffffffffffffffffffffffffffffffffffffffff16905081600760006101000a81548173ffffffffffffffffffffffffffffffffffffffff021916908373ffffffffffffffffffffffffffffffffffffffff1602179055508173ffffffffffffffffffffffffffffffffffffffff168173ffffffffffffffffffffffffffffffffffffffff167f8be0079c531659141344cd1fd0a4f28419497f9722a3daafe3b4186f6b6457e060405160405180910390a35050565b828054620001b49062000285565b90600052602060002090601f016020900481019282620001d8576000855562000224565b82601f10620001f357805160ff191683800117855562000224565b8280016001018555821562000224579182015b828111156200022357825182559160200191906001019062000206565b5b50905062000233919062000237565b5090565b5b808211156200025257600081600090555060010162000238565b5090565b7f4e487b7100000000000000000000000000000000000000000000000000000000600052602260045260246000fd5b600060028204905060018216806200029e57607f821691505b60208210811415620002b557620002b462000256565b5b50919050565b6133d480620002cb6000396000f3fe608060405234801561001057600080fd5b506004361061012c5760003560e01c8063715018a6116100ad578063b88d4fde11610071578063b88d4fde14610344578063c87b56dd14610360578063d3c0971314610390578063e985e9c5146103ac578063f2fde38b146103dc5761012c565b8063715018a6146102b25780638da5cb5b146102bc57806395d89b41146102da57806399071190146102f8578063a22cb465146103285761012c565b806342842e0e116100f457806342842e0e146101e75780634e35f4a0146102035780636352211e14610221578063691215b11461025157806370a08231146102825761012c565b806301ffc9a71461013157806306fdde0314610161578063081812fc1461017f578063095ea7b3146101af57806323b872dd146101cb575b600080fd5b61014b60048036038101906101469190611ea4565b6103f8565b6040516101589190611eec565b60405180910390f35b6101696104da565b6040516101769190611fa0565b60405180910390f35b61019960048036038101906101949190611ff8565b61056c565b6040516101a69190612066565b60405180910390f35b6101c960048036038101906101c491906120ad565b6105b2565b005b6101e560048036038101906101e091906120ed565b6106ca565b005b61020160048036038101906101fc91906120ed565b61072a565b005b61020b61074a565b604051610218919061219f565b60405180910390f35b61023b60048036038101906102369190611ff8565b610770565b6040516102489190612066565b60405180910390f35b61026b600480360381019061026691906121ba565b610822565b6040516102799291906123b1565b60405180910390f35b61029c600480360381019061029791906121ba565b6109a1565b6040516102a991906123f7565b60405180910390f35b6102ba610a59565b005b6102c4610a6d565b6040516102d19190612066565b60405180910390f35b6102e2610a97565b6040516102ef9190611fa0565b60405180910390f35b610312600480360381019061030d91906125a7565b610b29565b60405161031f91906123f7565b60405180910390f35b610342600480360381019061033d9190612663565b610c35565b005b61035e60048036038101906103599190612744565b610c4b565b005b61037a60048036038101906103759190611ff8565b610cad565b6040516103879190611fa0565b60405180910390f35b6103aa60048036038101906103a59190612805565b610dc0565b005b6103c660048036038101906103c19190612832565b610e0c565b6040516103d39190611eec565b60405180910390f35b6103f660048036038101906103f191906121ba565b610ea0565b005b60007f80ac58cd000000000000000000000000000000000000000000000000000000007bffffffffffffffffffffffffffffffffffffffffffffffffffffffff1916827bffffffffffffffffffffffffffffffffffffffffffffffffffffffff191614806104c357507f5b5e139f000000000000000000000000000000000000000000000000000000007bffffffffffffffffffffffffffffffffffffffffffffffffffffffff1916827bffffffffffffffffffffffffffffffffffffffffffffffffffffffff1916145b806104d357506104d282610f24565b5b9050919050565b6060600080546104e9906128a1565b80601f0160208091040260200160405190810160405280929190818152602001828054610515906128a1565b80156105625780601f1061053757610100808354040283529160200191610562565b820191906000526020600020905b81548152906001019060200180831161054557829003601f168201915b5050505050905090565b600061057782610f8e565b6004600083815260200190815260200160002060009054906101000a900473ffffffffffffffffffffffffffffffffffffffff169050919050565b60006105bd82610770565b90508073ffffffffffffffffffffffffffffffffffffffff168373ffffffffffffffffffffffffffffffffffffffff16141561062e576040517f08c379a000000000000000000000000000000000000000000000000000000000815260040161062590612945565b60405180910390fd5b8073ffffffffffffffffffffffffffffffffffffffff1661064d610fd9565b73ffffffffffffffffffffffffffffffffffffffff16148061067c575061067b81610676610fd9565b610e0c565b5b6106bb576040517f08c379a00000000000000000000000000000000000000000000000000000000081526004016106b2906129d7565b60405180910390fd5b6106c58383610fe1565b505050565b6106db6106d5610fd9565b8261109a565b61071a576040517f08c379a000000000000000000000000000000000000000000000000000000000815260040161071190612a69565b60405180910390fd5b61072583838361112f565b505050565b61074583838360405180602001604052806000815250610c4b565b505050565b600960009054906101000a900473ffffffffffffffffffffffffffffffffffffffff1681565b6000806002600084815260200190815260200160002060009054906101000a900473ffffffffffffffffffffffffffffffffffffffff169050600073ffffffffffffffffffffffffffffffffffffffff168173ffffffffffffffffffffffffffffffffffffffff161415610819576040517f08c379a000000000000000000000000000000000000000000000000000000000815260040161081090612ad5565b60405180910390fd5b80915050919050565b60608060006108316008611396565b905060008061083f866113a4565b905060008167ffffffffffffffff81111561085d5761085c61241c565b5b60405190808252806020026020018201604052801561088b5781602001602082028036833780820191505090505b50905060008267ffffffffffffffff8111156108aa576108a961241c565b5b6040519080825280602002602001820160405280156108dd57816020015b60608152602001906001900390816108c85790505b50905060005b85811015610990578873ffffffffffffffffffffffffffffffffffffffff1661090b82610770565b73ffffffffffffffffffffffffffffffffffffffff16141561097d578083868151811061093b5761093a612af5565b5b60200260200101818152505061095081610cad565b82868151811061096357610962612af5565b5b6020026020010181905250848061097990612b53565b9550505b808061098890612b53565b9150506108e3565b508181965096505050505050915091565b60008073ffffffffffffffffffffffffffffffffffffffff168273ffffffffffffffffffffffffffffffffffffffff161415610a12576040517f08c379a0000000000000000000000000000000000000000000000000000000008152600401610a0990612c0e565b60405180910390fd5b600360008373ffffffffffffffffffffffffffffffffffffffff1673ffffffffffffffffffffffffffffffffffffffff168152602001908152602001600020549050919050565b610a61611423565b610a6b60006114a1565b565b6000600760009054906101000a900473ffffffffffffffffffffffffffffffffffffffff16905090565b606060018054610aa6906128a1565b80601f0160208091040260200160405190810160405280929190818152602001828054610ad2906128a1565b8015610b1f5780601f10610af457610100808354040283529160200191610b1f565b820191906000526020600020905b815481529060010190602001808311610b0257829003601f168201915b5050505050905090565b6000610b33611423565b6000610b3f6008611396565b9050610b4b8682611567565b610b558186611741565b600960009054906101000a900473ffffffffffffffffffffffffffffffffffffffff1673ffffffffffffffffffffffffffffffffffffffff1663d0def5218786866040518463ffffffff1660e01b8152600401610bb493929190612c5b565b600060405180830381600087803b158015610bce57600080fd5b505af1158015610be2573d6000803e3d6000fd5b505050507f0f6798a560793a54c3bcfe86a93cde1e73087d944c0ea20544137d41213968858682604051610c17929190612c8d565b60405180910390a1610c2960086117b5565b80915050949350505050565b610c47610c40610fd9565b83836117cb565b5050565b610c5c610c56610fd9565b8361109a565b610c9b576040517f08c379a0000000000000000000000000000000000000000000000000000000008152600401610c9290612a69565b60405180910390fd5b610ca784848484611938565b50505050565b6060610cb882610f8e565b6000600660008481526020019081526020016000208054610cd8906128a1565b80601f0160208091040260200160405190810160405280929190818152602001828054610d04906128a1565b8015610d515780601f10610d2657610100808354040283529160200191610d51565b820191906000526020600020905b815481529060010190602001808311610d3457829003601f168201915b505050505090506000610d62611994565b9050600081511415610d78578192505050610dbb565b600082511115610dad578082604051602001610d95929190612cf2565b60405160208183030381529060405292505050610dbb565b610db6846119ab565b925050505b919050565b610dc8611423565b80600960006101000a81548173ffffffffffffffffffffffffffffffffffffffff021916908373ffffffffffffffffffffffffffffffffffffffff16021790555050565b6000600560008473ffffffffffffffffffffffffffffffffffffffff1673ffffffffffffffffffffffffffffffffffffffff16815260200190815260200160002060008373ffffffffffffffffffffffffffffffffffffffff1673ffffffffffffffffffffffffffffffffffffffff16815260200190815260200160002060009054906101000a900460ff16905092915050565b610ea8611423565b600073ffffffffffffffffffffffffffffffffffffffff168173ffffffffffffffffffffffffffffffffffffffff161415610f18576040517f08c379a0000000000000000000000000000000000000000000000000000000008152600401610f0f90612d88565b60405180910390fd5b610f21816114a1565b50565b60007f01ffc9a7000000000000000000000000000000000000000000000000000000007bffffffffffffffffffffffffffffffffffffffffffffffffffffffff1916827bffffffffffffffffffffffffffffffffffffffffffffffffffffffff1916149050919050565b610f9781611a13565b610fd6576040517f08c379a0000000000000000000000000000000000000000000000000000000008152600401610fcd90612ad5565b60405180910390fd5b50565b600033905090565b816004600083815260200190815260200160002060006101000a81548173ffffffffffffffffffffffffffffffffffffffff021916908373ffffffffffffffffffffffffffffffffffffffff160217905550808273ffffffffffffffffffffffffffffffffffffffff1661105483610770565b73ffffffffffffffffffffffffffffffffffffffff167f8c5be1e5ebec7d5bd14f71427d1e84f3dd0314c0f7b2291e5b200ac8c7c3b92560405160405180910390a45050565b6000806110a683610770565b90508073ffffffffffffffffffffffffffffffffffffffff168473ffffffffffffffffffffffffffffffffffffffff1614806110e857506110e78185610e0c565b5b8061112657508373ffffffffffffffffffffffffffffffffffffffff1661110e8461056c565b73ffffffffffffffffffffffffffffffffffffffff16145b91505092915050565b8273ffffffffffffffffffffffffffffffffffffffff1661114f82610770565b73ffffffffffffffffffffffffffffffffffffffff16146111a5576040517f08c379a000000000000000000000000000000000000000000000000000000000815260040161119c90612e1a565b60405180910390fd5b600073ffffffffffffffffffffffffffffffffffffffff168273ffffffffffffffffffffffffffffffffffffffff161415611215576040517f08c379a000000000000000000000000000000000000000000000000000000000815260040161120c90612eac565b60405180910390fd5b611220838383611a7f565b61122b600082610fe1565b6001600360008573ffffffffffffffffffffffffffffffffffffffff1673ffffffffffffffffffffffffffffffffffffffff168152602001908152602001600020600082825461127b9190612ecc565b925050819055506001600360008473ffffffffffffffffffffffffffffffffffffffff1673ffffffffffffffffffffffffffffffffffffffff16815260200190815260200160002060008282546112d29190612f00565b92505081905550816002600083815260200190815260200160002060006101000a81548173ffffffffffffffffffffffffffffffffffffffff021916908373ffffffffffffffffffffffffffffffffffffffff160217905550808273ffffffffffffffffffffffffffffffffffffffff168473ffffffffffffffffffffffffffffffffffffffff167fddf252ad1be2c89b69c2b068fc378daa952ba7f163c4a11628f55a4df523b3ef60405160405180910390a4611391838383611a84565b505050565b600081600001549050919050565b6000806113b16008611396565b905060005b8181101561141c578373ffffffffffffffffffffffffffffffffffffffff166113de82610770565b73ffffffffffffffffffffffffffffffffffffffff16141561140957828061140590612b53565b9350505b808061141490612b53565b9150506113b6565b5050919050565b61142b610fd9565b73ffffffffffffffffffffffffffffffffffffffff16611449610a6d565b73ffffffffffffffffffffffffffffffffffffffff161461149f576040517f08c379a000000000000000000000000000000000000000000000000000000000815260040161149690612fa2565b60405180910390fd5b565b6000600760009054906101000a900473ffffffffffffffffffffffffffffffffffffffff16905081600760006101000a81548173ffffffffffffffffffffffffffffffffffffffff021916908373ffffffffffffffffffffffffffffffffffffffff1602179055508173ffffffffffffffffffffffffffffffffffffffff168173ffffffffffffffffffffffffffffffffffffffff167f8be0079c531659141344cd1fd0a4f28419497f9722a3daafe3b4186f6b6457e060405160405180910390a35050565b600073ffffffffffffffffffffffffffffffffffffffff168273ffffffffffffffffffffffffffffffffffffffff1614156115d7576040517f08c379a00000000000000000000000000000000000000000000000000000000081526004016115ce9061300e565b60405180910390fd5b6115e081611a13565b15611620576040517f08c379a00000000000000000000000000000000000000000000000000000000081526004016116179061307a565b60405180910390fd5b61162c60008383611a7f565b6001600360008473ffffffffffffffffffffffffffffffffffffffff1673ffffffffffffffffffffffffffffffffffffffff168152602001908152602001600020600082825461167c9190612f00565b92505081905550816002600083815260200190815260200160002060006101000a81548173ffffffffffffffffffffffffffffffffffffffff021916908373ffffffffffffffffffffffffffffffffffffffff160217905550808273ffffffffffffffffffffffffffffffffffffffff16600073ffffffffffffffffffffffffffffffffffffffff167fddf252ad1be2c89b69c2b068fc378daa952ba7f163c4a11628f55a4df523b3ef60405160405180910390a461173d60008383611a84565b5050565b61174a82611a13565b611789576040517f08c379a00000000000000000000000000000000000000000000000000000000081526004016117809061310c565b60405180910390fd5b806006600084815260200190815260200160002090805190602001906117b0929190611d95565b505050565b6001816000016000828254019250508190555050565b8173ffffffffffffffffffffffffffffffffffffffff168373ffffffffffffffffffffffffffffffffffffffff16141561183a576040517f08c379a000000000000000000000000000000000000000000000000000000000815260040161183190613178565b60405180910390fd5b80600560008573ffffffffffffffffffffffffffffffffffffffff1673ffffffffffffffffffffffffffffffffffffffff16815260200190815260200160002060008473ffffffffffffffffffffffffffffffffffffffff1673ffffffffffffffffffffffffffffffffffffffff16815260200190815260200160002060006101000a81548160ff0219169083151502179055508173ffffffffffffffffffffffffffffffffffffffff168373ffffffffffffffffffffffffffffffffffffffff167f17307eab39ab6107e8899845ad3d59bd9653f200f220920489ca2b5937696c318360405161192b9190611eec565b60405180910390a3505050565b61194384848461112f565b61194f84848484611a89565b61198e576040517f08c379a00000000000000000000000000000000000000000000000000000000081526004016119859061320a565b60405180910390fd5b50505050565b606060405180602001604052806000815250905090565b60606119b682610f8e565b60006119c0611994565b905060008151116119e05760405180602001604052806000815250611a0b565b806119ea84611c11565b6040516020016119fb929190612cf2565b6040516020818303038152906040525b915050919050565b60008073ffffffffffffffffffffffffffffffffffffffff166002600084815260200190815260200160002060009054906101000a900473ffffffffffffffffffffffffffffffffffffffff1673ffffffffffffffffffffffffffffffffffffffff1614159050919050565b505050565b505050565b6000611aaa8473ffffffffffffffffffffffffffffffffffffffff16611d72565b15611c04578373ffffffffffffffffffffffffffffffffffffffff1663150b7a02611ad3610fd9565b8786866040518563ffffffff1660e01b8152600401611af5949392919061327f565b6020604051808303816000875af1925050508015611b3157506040513d601f19601f82011682018060405250810190611b2e91906132e0565b60015b611bb4573d8060008114611b61576040519150601f19603f3d011682016040523d82523d6000602084013e611b66565b606091505b50600081511415611bac576040517f08c379a0000000000000000000000000000000000000000000000000000000008152600401611ba39061320a565b60405180910390fd5b805181602001fd5b63150b7a0260e01b7bffffffffffffffffffffffffffffffffffffffffffffffffffffffff1916817bffffffffffffffffffffffffffffffffffffffffffffffffffffffff191614915050611c09565b600190505b949350505050565b60606000821415611c59576040518060400160405280600181526020017f30000000000000000000000000000000000000000000000000000000000000008152509050611d6d565b600082905060005b60008214611c8b578080611c7490612b53565b915050600a82611c84919061333c565b9150611c61565b60008167ffffffffffffffff811115611ca757611ca661241c565b5b6040519080825280601f01601f191660200182016040528015611cd95781602001600182028036833780820191505090505b5090505b60008514611d6657600182611cf29190612ecc565b9150600a85611d01919061336d565b6030611d0d9190612f00565b60f81b818381518110611d2357611d22612af5565b5b60200101907effffffffffffffffffffffffffffffffffffffffffffffffffffffffffffff1916908160001a905350600a85611d5f919061333c565b9450611cdd565b8093505050505b919050565b6000808273ffffffffffffffffffffffffffffffffffffffff163b119050919050565b828054611da1906128a1565b90600052602060002090601f016020900481019282611dc35760008555611e0a565b82601f10611ddc57805160ff1916838001178555611e0a565b82800160010185558215611e0a579182015b82811115611e09578251825591602001919060010190611dee565b5b509050611e179190611e1b565b5090565b5b80821115611e34576000816000905550600101611e1c565b5090565b6000604051905090565b600080fd5b600080fd5b60007fffffffff0000000000000000000000000000000000000000000000000000000082169050919050565b611e8181611e4c565b8114611e8c57600080fd5b50565b600081359050611e9e81611e78565b92915050565b600060208284031215611eba57611eb9611e42565b5b6000611ec884828501611e8f565b91505092915050565b60008115159050919050565b611ee681611ed1565b82525050565b6000602082019050611f016000830184611edd565b92915050565b600081519050919050565b600082825260208201905092915050565b60005b83811015611f41578082015181840152602081019050611f26565b83811115611f50576000848401525b50505050565b6000601f19601f8301169050919050565b6000611f7282611f07565b611f7c8185611f12565b9350611f8c818560208601611f23565b611f9581611f56565b840191505092915050565b60006020820190508181036000830152611fba8184611f67565b905092915050565b6000819050919050565b611fd581611fc2565b8114611fe057600080fd5b50565b600081359050611ff281611fcc565b92915050565b60006020828403121561200e5761200d611e42565b5b600061201c84828501611fe3565b91505092915050565b600073ffffffffffffffffffffffffffffffffffffffff82169050919050565b600061205082612025565b9050919050565b61206081612045565b82525050565b600060208201905061207b6000830184612057565b92915050565b61208a81612045565b811461209557600080fd5b50565b6000813590506120a781612081565b92915050565b600080604083850312156120c4576120c3611e42565b5b60006120d285828601612098565b92505060206120e385828601611fe3565b9150509250929050565b60008060006060848603121561210657612105611e42565b5b600061211486828701612098565b935050602061212586828701612098565b925050604061213686828701611fe3565b9150509250925092565b6000819050919050565b600061216561216061215b84612025565b612140565b612025565b9050919050565b60006121778261214a565b9050919050565b60006121898261216c565b9050919050565b6121998161217e565b82525050565b60006020820190506121b46000830184612190565b92915050565b6000602082840312156121d0576121cf611e42565b5b60006121de84828501612098565b91505092915050565b600081519050919050565b600082825260208201905092915050565b6000819050602082019050919050565b61221c81611fc2565b82525050565b600061222e8383612213565b60208301905092915050565b6000602082019050919050565b6000612252826121e7565b61225c81856121f2565b935061226783612203565b8060005b8381101561229857815161227f8882612222565b975061228a8361223a565b92505060018101905061226b565b5085935050505092915050565b600081519050919050565b600082825260208201905092915050565b6000819050602082019050919050565b600082825260208201905092915050565b60006122ed82611f07565b6122f781856122d1565b9350612307818560208601611f23565b61231081611f56565b840191505092915050565b600061232783836122e2565b905092915050565b6000602082019050919050565b6000612347826122a5565b61235181856122b0565b935083602082028501612363856122c1565b8060005b8581101561239f5784840389528151612380858261231b565b945061238b8361232f565b925060208a01995050600181019050612367565b50829750879550505050505092915050565b600060408201905081810360008301526123cb8185612247565b905081810360208301526123df818461233c565b90509392505050565b6123f181611fc2565b82525050565b600060208201905061240c60008301846123e8565b92915050565b600080fd5b600080fd5b7f4e487b7100000000000000000000000000000000000000000000000000000000600052604160045260246000fd5b61245482611f56565b810181811067ffffffffffffffff821117156124735761247261241c565b5b80604052505050565b6000612486611e38565b9050612492828261244b565b919050565b600067ffffffffffffffff8211156124b2576124b161241c565b5b6124bb82611f56565b9050602081019050919050565b82818337600083830152505050565b60006124ea6124e584612497565b61247c565b90508281526020810184848401111561250657612505612417565b5b6125118482856124c8565b509392505050565b600082601f83011261252e5761252d612412565b5b813561253e8482602086016124d7565b91505092915050565b600080fd5b600080fd5b60008083601f84011261256757612566612412565b5b8235905067ffffffffffffffff81111561258457612583612547565b5b6020830191508360018202830111156125a05761259f61254c565b5b9250929050565b600080600080606085870312156125c1576125c0611e42565b5b60006125cf87828801612098565b945050602085013567ffffffffffffffff8111156125f0576125ef611e47565b5b6125fc87828801612519565b935050604085013567ffffffffffffffff81111561261d5761261c611e47565b5b61262987828801612551565b925092505092959194509250565b61264081611ed1565b811461264b57600080fd5b50565b60008135905061265d81612637565b92915050565b6000806040838503121561267a57612679611e42565b5b600061268885828601612098565b92505060206126998582860161264e565b9150509250929050565b600067ffffffffffffffff8211156126be576126bd61241c565b5b6126c782611f56565b9050602081019050919050565b60006126e76126e2846126a3565b61247c565b90508281526020810184848401111561270357612702612417565b5b61270e8482856124c8565b509392505050565b600082601f83011261272b5761272a612412565b5b813561273b8482602086016126d4565b91505092915050565b6000806000806080858703121561275e5761275d611e42565b5b600061276c87828801612098565b945050602061277d87828801612098565b935050604061278e87828801611fe3565b925050606085013567ffffffffffffffff8111156127af576127ae611e47565b5b6127bb87828801612716565b91505092959194509250565b60006127d282612045565b9050919050565b6127e2816127c7565b81146127ed57600080fd5b50565b6000813590506127ff816127d9565b92915050565b60006020828403121561281b5761281a611e42565b5b6000612829848285016127f0565b91505092915050565b6000806040838503121561284957612848611e42565b5b600061285785828601612098565b925050602061286885828601612098565b9150509250929050565b7f4e487b7100000000000000000000000000000000000000000000000000000000600052602260045260246000fd5b600060028204905060018216806128b957607f821691505b602082108114156128cd576128cc612872565b5b50919050565b7f4552433732313a20617070726f76616c20746f2063757272656e74206f776e6560008201527f7200000000000000000000000000000000000000000000000000000000000000602082015250565b600061292f602183611f12565b915061293a826128d3565b604082019050919050565b6000602082019050818103600083015261295e81612922565b9050919050565b7f4552433732313a20617070726f76652063616c6c6572206973206e6f7420746f60008201527f6b656e206f776e6572206e6f7220617070726f76656420666f7220616c6c0000602082015250565b60006129c1603e83611f12565b91506129cc82612965565b604082019050919050565b600060208201905081810360008301526129f0816129b4565b9050919050565b7f4552433732313a2063616c6c6572206973206e6f7420746f6b656e206f776e6560008201527f72206e6f7220617070726f766564000000000000000000000000000000000000602082015250565b6000612a53602e83611f12565b9150612a5e826129f7565b604082019050919050565b60006020820190508181036000830152612a8281612a46565b9050919050565b7f4552433732313a20696e76616c696420746f6b656e2049440000000000000000600082015250565b6000612abf601883611f12565b9150612aca82612a89565b602082019050919050565b60006020820190508181036000830152612aee81612ab2565b9050919050565b7f4e487b7100000000000000000000000000000000000000000000000000000000600052603260045260246000fd5b7f4e487b7100000000000000000000000000000000000000000000000000000000600052601160045260246000fd5b6000612b5e82611fc2565b91507fffffffffffffffffffffffffffffffffffffffffffffffffffffffffffffffff821415612b9157612b90612b24565b5b600182019050919050565b7f4552433732313a2061646472657373207a65726f206973206e6f74206120766160008201527f6c6964206f776e65720000000000000000000000000000000000000000000000602082015250565b6000612bf8602983611f12565b9150612c0382612b9c565b604082019050919050565b60006020820190508181036000830152612c2781612beb565b9050919050565b6000612c3a8385611f12565b9350612c478385846124c8565b612c5083611f56565b840190509392505050565b6000604082019050612c706000830186612057565b8181036020830152612c83818486612c2e565b9050949350505050565b6000604082019050612ca26000830185612057565b612caf60208301846123e8565b9392505050565b600081905092915050565b6000612ccc82611f07565b612cd68185612cb6565b9350612ce6818560208601611f23565b80840191505092915050565b6000612cfe8285612cc1565b9150612d0a8284612cc1565b91508190509392505050565b7f4f776e61626c653a206e6577206f776e657220697320746865207a65726f206160008201527f6464726573730000000000000000000000000000000000000000000000000000602082015250565b6000612d72602683611f12565b9150612d7d82612d16565b604082019050919050565b60006020820190508181036000830152612da181612d65565b9050919050565b7f4552433732313a207472616e736665722066726f6d20696e636f72726563742060008201527f6f776e6572000000000000000000000000000000000000000000000000000000602082015250565b6000612e04602583611f12565b9150612e0f82612da8565b604082019050919050565b60006020820190508181036000830152612e3381612df7565b9050919050565b7f4552433732313a207472616e7366657220746f20746865207a65726f2061646460008201527f7265737300000000000000000000000000000000000000000000000000000000602082015250565b6000612e96602483611f12565b9150612ea182612e3a565b604082019050919050565b60006020820190508181036000830152612ec581612e89565b9050919050565b6000612ed782611fc2565b9150612ee283611fc2565b925082821015612ef557612ef4612b24565b5b828203905092915050565b6000612f0b82611fc2565b9150612f1683611fc2565b9250827fffffffffffffffffffffffffffffffffffffffffffffffffffffffffffffffff03821115612f4b57612f4a612b24565b5b828201905092915050565b7f4f776e61626c653a2063616c6c6572206973206e6f7420746865206f776e6572600082015250565b6000612f8c602083611f12565b9150612f9782612f56565b602082019050919050565b60006020820190508181036000830152612fbb81612f7f565b9050919050565b7f4552433732313a206d696e7420746f20746865207a65726f2061646472657373600082015250565b6000612ff8602083611f12565b915061300382612fc2565b602082019050919050565b6000602082019050818103600083015261302781612feb565b9050919050565b7f4552433732313a20746f6b656e20616c7265616479206d696e74656400000000600082015250565b6000613064601c83611f12565b915061306f8261302e565b602082019050919050565b6000602082019050818103600083015261309381613057565b9050919050565b7f45524337323155524953746f726167653a2055524920736574206f66206e6f6e60008201527f6578697374656e7420746f6b656e000000000000000000000000000000000000602082015250565b60006130f6602e83611f12565b91506131018261309a565b604082019050919050565b60006020820190508181036000830152613125816130e9565b9050919050565b7f4552433732313a20617070726f766520746f2063616c6c657200000000000000600082015250565b6000613162601983611f12565b915061316d8261312c565b602082019050919050565b6000602082019050818103600083015261319181613155565b9050919050565b7f4552433732313a207472616e7366657220746f206e6f6e20455243373231526560008201527f63656976657220696d706c656d656e7465720000000000000000000000000000602082015250565b60006131f4603283611f12565b91506131ff82613198565b604082019050919050565b60006020820190508181036000830152613223816131e7565b9050919050565b600081519050919050565b600082825260208201905092915050565b60006132518261322a565b61325b8185613235565b935061326b818560208601611f23565b61327481611f56565b840191505092915050565b60006080820190506132946000830187612057565b6132a16020830186612057565b6132ae60408301856123e8565b81810360608301526132c08184613246565b905095945050505050565b6000815190506132da81611e78565b92915050565b6000602082840312156132f6576132f5611e42565b5b6000613304848285016132cb565b91505092915050565b7f4e487b7100000000000000000000000000000000000000000000000000000000600052601260045260246000fd5b600061334782611fc2565b915061335283611fc2565b9250826133625761336161330d565b5b828204905092915050565b600061337882611fc2565b915061338383611fc2565b9250826133935761339261330d565b5b82820690509291505056fea26469706673582212206dfdb4a23534a40affa32d66af79996f60ba7c7b2288578f80785d40428b32e664736f6c634300080a0033",
  "linkReferences": {},
  "deployedLinkReferences": {}
}