{
  "_format": "hh-sol-artifact-1",
  "contractName": "SideAStarvingNFT",
  "sourceName": "contracts/SideAStarvingNFT.sol",
  "abi": [
    {
      "inputs": [
        {
          "internalType": "contract Tap",
          "name": "_tapToken",
          "type": "address"
        }
      ],
      "stateMutability": "nonpayable",
      "type": "constructor"
    },
    {
      "anonymous": false,
      "inputs": [
        {
          "indexed": true,
          "internalType": "address",
          "name": "owner",
          "type": "address"
        },
        {
          "indexed": true,
          "internalType": "address",
          "name": "approved",
          "type": "address"
        },
        {
          "indexed": true,
          "internalType": "uint256",
          "name": "tokenId",
          "type": "uint256"
        }
      ],
      "name": "Approval",
      "type": "event"
    },
    {
      "anonymous": false,
      "inputs": [
        {
          "indexed": true,
          "internalType": "address",
          "name": "owner",
          "type": "address"
        },
        {
          "indexed": true,
          "internalType": "address",
          "name": "operator",
          "type": "address"
        },
        {
          "indexed": false,
          "internalType": "bool",
          "name": "approved",
          "type": "bool"
        }
      ],
      "name": "ApprovalForAll",
      "type": "event"
    },
    {
      "anonymous": false,
      "inputs": [
        {
          "indexed": false,
          "internalType": "address",
          "name": "to",
          "type": "address"
        },
        {
          "indexed": false,
          "internalType": "uint256",
          "name": "tokenId",
          "type": "uint256"
        }
      ],
      "name": "Mint",
      "type": "event"
    },
    {
      "anonymous": false,
      "inputs": [
        {
          "indexed": true,
          "internalType": "address",
          "name": "previousOwner",
          "type": "address"
        },
        {
          "indexed": true,
          "internalType": "address",
          "name": "newOwner",
          "type": "address"
        }
      ],
      "name": "OwnershipTransferred",
      "type": "event"
    },
    {
      "anonymous": false,
      "inputs": [
        {
          "indexed": true,
          "internalType": "address",
          "name": "from",
          "type": "address"
        },
        {
          "indexed": true,
          "internalType": "address",
          "name": "to",
          "type": "address"
        },
        {
          "indexed": true,
          "internalType": "uint256",
          "name": "tokenId",
          "type": "uint256"
        }
      ],
      "name": "Transfer",
      "type": "event"
    },
    {
      "inputs": [
        {
          "internalType": "address",
          "name": "to",
          "type": "address"
        },
        {
          "internalType": "uint256",
          "name": "tokenId",
          "type": "uint256"
        }
      ],
      "name": "approve",
      "outputs": [],
      "stateMutability": "nonpayable",
      "type": "function"
    },
    {
      "inputs": [
        {
          "internalType": "address",
          "name": "owner",
          "type": "address"
        }
      ],
      "name": "balanceOf",
      "outputs": [
        {
          "internalType": "uint256",
          "name": "",
          "type": "uint256"
        }
      ],
      "stateMutability": "view",
      "type": "function"
    },
    {
      "inputs": [
        {
          "internalType": "uint256",
          "name": "id",
          "type": "uint256"
        }
      ],
      "name": "buy",
      "outputs": [],
      "stateMutability": "nonpayable",
      "type": "function"
    },
    {
      "inputs": [
        {
          "internalType": "address",
          "name": "_address",
          "type": "address"
        }
      ],
      "name": "getAllNftsByAddress",
      "outputs": [
        {
          "internalType": "uint256[]",
          "name": "",
          "type": "uint256[]"
        },
        {
          "internalType": "string[]",
          "name": "",
          "type": "string[]"
        }
      ],
      "stateMutability": "view",
      "type": "function"
    },
    {
      "inputs": [
        {
          "internalType": "uint256",
          "name": "tokenId",
          "type": "uint256"
        }
      ],
      "name": "getApproved",
      "outputs": [
        {
          "internalType": "address",
          "name": "",
          "type": "address"
        }
      ],
      "stateMutability": "view",
      "type": "function"
    },
    {
      "inputs": [
        {
          "internalType": "address",
          "name": "owner",
          "type": "address"
        },
        {
          "internalType": "address",
          "name": "operator",
          "type": "address"
        }
      ],
      "name": "isApprovedForAll",
      "outputs": [
        {
          "internalType": "bool",
          "name": "",
          "type": "bool"
        }
      ],
      "stateMutability": "view",
      "type": "function"
    },
    {
      "inputs": [
        {
          "internalType": "address",
          "name": "to",
          "type": "address"
        },
        {
          "internalType": "string",
          "name": "tokenURISideA",
          "type": "string"
        },
        {
          "internalType": "string",
          "name": "tokenURISideB",
          "type": "string"
        }
      ],
      "name": "mint",
      "outputs": [
        {
          "internalType": "uint256",
          "name": "",
          "type": "uint256"
        }
      ],
      "stateMutability": "nonpayable",
      "type": "function"
    },
    {
      "inputs": [],
      "name": "name",
      "outputs": [
        {
          "internalType": "string",
          "name": "",
          "type": "string"
        }
      ],
      "stateMutability": "view",
      "type": "function"
    },
    {
      "inputs": [],
      "name": "owner",
      "outputs": [
        {
          "internalType": "address",
          "name": "",
          "type": "address"
        }
      ],
      "stateMutability": "view",
      "type": "function"
    },
    {
      "inputs": [
        {
          "internalType": "uint256",
          "name": "tokenId",
          "type": "uint256"
        }
      ],
      "name": "ownerOf",
      "outputs": [
        {
          "internalType": "address",
          "name": "",
          "type": "address"
        }
      ],
      "stateMutability": "view",
      "type": "function"
    },
    {
      "inputs": [],
      "name": "renounceOwnership",
      "outputs": [],
      "stateMutability": "nonpayable",
      "type": "function"
    },
    {
      "inputs": [
        {
          "internalType": "address",
          "name": "from",
          "type": "address"
        },
        {
          "internalType": "address",
          "name": "to",
          "type": "address"
        },
        {
          "internalType": "uint256",
          "name": "tokenId",
          "type": "uint256"
        }
      ],
      "name": "safeTransferFrom",
      "outputs": [],
      "stateMutability": "nonpayable",
      "type": "function"
    },
    {
      "inputs": [
        {
          "internalType": "address",
          "name": "from",
          "type": "address"
        },
        {
          "internalType": "address",
          "name": "to",
          "type": "address"
        },
        {
          "internalType": "uint256",
          "name": "tokenId",
          "type": "uint256"
        },
        {
          "internalType": "bytes",
          "name": "data",
          "type": "bytes"
        }
      ],
      "name": "safeTransferFrom",
      "outputs": [],
      "stateMutability": "nonpayable",
      "type": "function"
    },
    {
      "inputs": [
        {
          "internalType": "address",
          "name": "operator",
          "type": "address"
        },
        {
          "internalType": "bool",
          "name": "approved",
          "type": "bool"
        }
      ],
      "name": "setApprovalForAll",
      "outputs": [],
      "stateMutability": "nonpayable",
      "type": "function"
    },
    {
      "inputs": [
        {
          "internalType": "contract SideBStarvingNFT",
          "name": "_sideB",
          "type": "address"
        }
      ],
      "name": "setSideB",
      "outputs": [],
      "stateMutability": "nonpayable",
      "type": "function"
    },
    {
      "inputs": [],
      "name": "sideB",
      "outputs": [
        {
          "internalType": "contract SideBStarvingNFT",
          "name": "",
          "type": "address"
        }
      ],
      "stateMutability": "view",
      "type": "function"
    },
    {
      "inputs": [
        {
          "internalType": "bytes4",
          "name": "interfaceId",
          "type": "bytes4"
        }
      ],
      "name": "supportsInterface",
      "outputs": [
        {
          "internalType": "bool",
          "name": "",
          "type": "bool"
        }
      ],
      "stateMutability": "view",
      "type": "function"
    },
    {
      "inputs": [],
      "name": "symbol",
      "outputs": [
        {
          "internalType": "string",
          "name": "",
          "type": "string"
        }
      ],
      "stateMutability": "view",
      "type": "function"
    },
    {
      "inputs": [],
      "name": "tapToken",
      "outputs": [
        {
          "internalType": "contract Tap",
          "name": "",
          "type": "address"
        }
      ],
      "stateMutability": "view",
      "type": "function"
    },
    {
      "inputs": [
        {
          "internalType": "uint256",
          "name": "tokenId",
          "type": "uint256"
        }
      ],
      "name": "tokenURI",
      "outputs": [
        {
          "internalType": "string",
          "name": "",
          "type": "string"
        }
      ],
      "stateMutability": "view",
      "type": "function"
    },
    {
      "inputs": [
        {
          "internalType": "address",
          "name": "from",
          "type": "address"
        },
        {
          "internalType": "address",
          "name": "to",
          "type": "address"
        },
        {
          "internalType": "uint256",
          "name": "tokenId",
          "type": "uint256"
        }
      ],
      "name": "transferFrom",
      "outputs": [],
      "stateMutability": "nonpayable",
      "type": "function"
    },
    {
      "inputs": [
        {
          "internalType": "address",
          "name": "newOwner",
          "type": "address"
        }
      ],
      "name": "transferOwnership",
      "outputs": [],
      "stateMutability": "nonpayable",
      "type": "function"
    }
  ],
  "bytecode": "0x60806040523480156200001157600080fd5b506040516200399a3803806200399a83398181016040528101906200003791906200033b565b6040518060400160405280601881526020017f5374617276696e67204368696c6472656e2053696465204100000000000000008152506040518060400160405280600381526020017f53544100000000000000000000000000000000000000000000000000000000008152508160009080519060200190620000bb9291906200020d565b508060019080519060200190620000d49291906200020d565b505050620000f7620000eb6200013f60201b60201c565b6200014760201b60201c565b80600a60006101000a81548173ffffffffffffffffffffffffffffffffffffffff021916908373ffffffffffffffffffffffffffffffffffffffff16021790555050620003d2565b600033905090565b6000600760009054906101000a900473ffffffffffffffffffffffffffffffffffffffff16905081600760006101000a81548173ffffffffffffffffffffffffffffffffffffffff021916908373ffffffffffffffffffffffffffffffffffffffff1602179055508173ffffffffffffffffffffffffffffffffffffffff168173ffffffffffffffffffffffffffffffffffffffff167f8be0079c531659141344cd1fd0a4f28419497f9722a3daafe3b4186f6b6457e060405160405180910390a35050565b8280546200021b906200039c565b90600052602060002090601f0160209004810192826200023f57600085556200028b565b82601f106200025a57805160ff19168380011785556200028b565b828001600101855582156200028b579182015b828111156200028a5782518255916020019190600101906200026d565b5b5090506200029a91906200029e565b5090565b5b80821115620002b95760008160009055506001016200029f565b5090565b600080fd5b600073ffffffffffffffffffffffffffffffffffffffff82169050919050565b6000620002ef82620002c2565b9050919050565b60006200030382620002e2565b9050919050565b6200031581620002f6565b81146200032157600080fd5b50565b60008151905062000335816200030a565b92915050565b600060208284031215620003545762000353620002bd565b5b6000620003648482850162000324565b91505092915050565b7f4e487b7100000000000000000000000000000000000000000000000000000000600052602260045260246000fd5b60006002820490506001821680620003b557607f821691505b60208210811415620003cc57620003cb6200036d565b5b50919050565b6135b880620003e26000396000f3fe608060405234801561001057600080fd5b50600436106101425760003560e01c80638da5cb5b116100b8578063c7cee5321161007c578063c7cee53214610376578063c87b56dd14610394578063d3c09713146103c4578063d96a094a146103e0578063e985e9c5146103fc578063f2fde38b1461042c57610142565b80638da5cb5b146102d257806395d89b41146102f0578063990711901461030e578063a22cb4651461033e578063b88d4fde1461035a57610142565b806342842e0e1161010a57806342842e0e146101fd5780634e35f4a0146102195780636352211e14610237578063691215b11461026757806370a0823114610298578063715018a6146102c857610142565b806301ffc9a71461014757806306fdde0314610177578063081812fc14610195578063095ea7b3146101c557806323b872dd146101e1575b600080fd5b610161600480360381019061015c9190611fd3565b610448565b60405161016e919061201b565b60405180910390f35b61017f61052a565b60405161018c91906120cf565b60405180910390f35b6101af60048036038101906101aa9190612127565b6105bc565b6040516101bc9190612195565b60405180910390f35b6101df60048036038101906101da91906121dc565b610602565b005b6101fb60048036038101906101f6919061221c565b61071a565b005b6102176004803603810190610212919061221c565b61077a565b005b61022161079a565b60405161022e91906122ce565b60405180910390f35b610251600480360381019061024c9190612127565b6107c0565b60405161025e9190612195565b60405180910390f35b610281600480360381019061027c91906122e9565b610872565b60405161028f9291906124e0565b60405180910390f35b6102b260048036038101906102ad91906122e9565b6109f1565b6040516102bf9190612526565b60405180910390f35b6102d0610aa9565b005b6102da610abd565b6040516102e79190612195565b60405180910390f35b6102f8610ae7565b60405161030591906120cf565b60405180910390f35b610328600480360381019061032391906126d6565b610b79565b6040516103359190612526565b60405180910390f35b61035860048036038101906103539190612792565b610c85565b005b610374600480360381019061036f9190612873565b610c9b565b005b61037e610cfd565b60405161038b9190612917565b60405180910390f35b6103ae60048036038101906103a99190612127565b610d23565b6040516103bb91906120cf565b60405180910390f35b6103de60048036038101906103d99190612970565b610e36565b005b6103fa60048036038101906103f59190612127565b610e82565b005b6104166004803603810190610411919061299d565b610f3b565b604051610423919061201b565b60405180910390f35b610446600480360381019061044191906122e9565b610fcf565b005b60007f80ac58cd000000000000000000000000000000000000000000000000000000007bffffffffffffffffffffffffffffffffffffffffffffffffffffffff1916827bffffffffffffffffffffffffffffffffffffffffffffffffffffffff1916148061051357507f5b5e139f000000000000000000000000000000000000000000000000000000007bffffffffffffffffffffffffffffffffffffffffffffffffffffffff1916827bffffffffffffffffffffffffffffffffffffffffffffffffffffffff1916145b80610523575061052282611053565b5b9050919050565b60606000805461053990612a0c565b80601f016020809104026020016040519081016040528092919081815260200182805461056590612a0c565b80156105b25780601f10610587576101008083540402835291602001916105b2565b820191906000526020600020905b81548152906001019060200180831161059557829003601f168201915b5050505050905090565b60006105c7826110bd565b6004600083815260200190815260200160002060009054906101000a900473ffffffffffffffffffffffffffffffffffffffff169050919050565b600061060d826107c0565b90508073ffffffffffffffffffffffffffffffffffffffff168373ffffffffffffffffffffffffffffffffffffffff16141561067e576040517f08c379a000000000000000000000000000000000000000000000000000000000815260040161067590612ab0565b60405180910390fd5b8073ffffffffffffffffffffffffffffffffffffffff1661069d611108565b73ffffffffffffffffffffffffffffffffffffffff1614806106cc57506106cb816106c6611108565b610f3b565b5b61070b576040517f08c379a000000000000000000000000000000000000000000000000000000000815260040161070290612b42565b60405180910390fd5b6107158383611110565b505050565b61072b610725611108565b826111c9565b61076a576040517f08c379a000000000000000000000000000000000000000000000000000000000815260040161076190612bd4565b60405180910390fd5b61077583838361125e565b505050565b61079583838360405180602001604052806000815250610c9b565b505050565b600960009054906101000a900473ffffffffffffffffffffffffffffffffffffffff1681565b6000806002600084815260200190815260200160002060009054906101000a900473ffffffffffffffffffffffffffffffffffffffff169050600073ffffffffffffffffffffffffffffffffffffffff168173ffffffffffffffffffffffffffffffffffffffff161415610869576040517f08c379a000000000000000000000000000000000000000000000000000000000815260040161086090612c40565b60405180910390fd5b80915050919050565b606080600061088160086114c5565b905060008061088f866114d3565b905060008167ffffffffffffffff8111156108ad576108ac61254b565b5b6040519080825280602002602001820160405280156108db5781602001602082028036833780820191505090505b50905060008267ffffffffffffffff8111156108fa576108f961254b565b5b60405190808252806020026020018201604052801561092d57816020015b60608152602001906001900390816109185790505b50905060005b858110156109e0578873ffffffffffffffffffffffffffffffffffffffff1661095b826107c0565b73ffffffffffffffffffffffffffffffffffffffff1614156109cd578083868151811061098b5761098a612c60565b5b6020026020010181815250506109a081610d23565b8286815181106109b3576109b2612c60565b5b602002602001018190525084806109c990612cbe565b9550505b80806109d890612cbe565b915050610933565b508181965096505050505050915091565b60008073ffffffffffffffffffffffffffffffffffffffff168273ffffffffffffffffffffffffffffffffffffffff161415610a62576040517f08c379a0000000000000000000000000000000000000000000000000000000008152600401610a5990612d79565b60405180910390fd5b600360008373ffffffffffffffffffffffffffffffffffffffff1673ffffffffffffffffffffffffffffffffffffffff168152602001908152602001600020549050919050565b610ab1611552565b610abb60006115d0565b565b6000600760009054906101000a900473ffffffffffffffffffffffffffffffffffffffff16905090565b606060018054610af690612a0c565b80601f0160208091040260200160405190810160405280929190818152602001828054610b2290612a0c565b8015610b6f5780601f10610b4457610100808354040283529160200191610b6f565b820191906000526020600020905b815481529060010190602001808311610b5257829003601f168201915b5050505050905090565b6000610b83611552565b6000610b8f60086114c5565b9050610b9b8682611696565b610ba58186611870565b600960009054906101000a900473ffffffffffffffffffffffffffffffffffffffff1673ffffffffffffffffffffffffffffffffffffffff1663d0def5218786866040518463ffffffff1660e01b8152600401610c0493929190612dc6565b600060405180830381600087803b158015610c1e57600080fd5b505af1158015610c32573d6000803e3d6000fd5b505050507f0f6798a560793a54c3bcfe86a93cde1e73087d944c0ea20544137d41213968858682604051610c67929190612df8565b60405180910390a1610c7960086118e4565b80915050949350505050565b610c97610c90611108565b83836118fa565b5050565b610cac610ca6611108565b836111c9565b610ceb576040517f08c379a0000000000000000000000000000000000000000000000000000000008152600401610ce290612bd4565b60405180910390fd5b610cf784848484611a67565b50505050565b600a60009054906101000a900473ffffffffffffffffffffffffffffffffffffffff1681565b6060610d2e826110bd565b6000600660008481526020019081526020016000208054610d4e90612a0c565b80601f0160208091040260200160405190810160405280929190818152602001828054610d7a90612a0c565b8015610dc75780601f10610d9c57610100808354040283529160200191610dc7565b820191906000526020600020905b815481529060010190602001808311610daa57829003601f168201915b505050505090506000610dd8611ac3565b9050600081511415610dee578192505050610e31565b600082511115610e23578082604051602001610e0b929190612e5d565b60405160208183030381529060405292505050610e31565b610e2c84611ada565b925050505b919050565b610e3e611552565b80600960006101000a81548173ffffffffffffffffffffffffffffffffffffffff021916908373ffffffffffffffffffffffffffffffffffffffff16021790555050565b600a60009054906101000a900473ffffffffffffffffffffffffffffffffffffffff1673ffffffffffffffffffffffffffffffffffffffff166323b872dd33306706ccd46763f100006040518463ffffffff1660e01b8152600401610ee993929190612e81565b6020604051808303816000875af1158015610f08573d6000803e3d6000fd5b505050506040513d601f19601f82011682018060405250810190610f2c9190612ecd565b50610f3830338361125e565b50565b6000600560008473ffffffffffffffffffffffffffffffffffffffff1673ffffffffffffffffffffffffffffffffffffffff16815260200190815260200160002060008373ffffffffffffffffffffffffffffffffffffffff1673ffffffffffffffffffffffffffffffffffffffff16815260200190815260200160002060009054906101000a900460ff16905092915050565b610fd7611552565b600073ffffffffffffffffffffffffffffffffffffffff168173ffffffffffffffffffffffffffffffffffffffff161415611047576040517f08c379a000000000000000000000000000000000000000000000000000000000815260040161103e90612f6c565b60405180910390fd5b611050816115d0565b50565b60007f01ffc9a7000000000000000000000000000000000000000000000000000000007bffffffffffffffffffffffffffffffffffffffffffffffffffffffff1916827bffffffffffffffffffffffffffffffffffffffffffffffffffffffff1916149050919050565b6110c681611b42565b611105576040517f08c379a00000000000000000000000000000000000000000000000000000000081526004016110fc90612c40565b60405180910390fd5b50565b600033905090565b816004600083815260200190815260200160002060006101000a81548173ffffffffffffffffffffffffffffffffffffffff021916908373ffffffffffffffffffffffffffffffffffffffff160217905550808273ffffffffffffffffffffffffffffffffffffffff16611183836107c0565b73ffffffffffffffffffffffffffffffffffffffff167f8c5be1e5ebec7d5bd14f71427d1e84f3dd0314c0f7b2291e5b200ac8c7c3b92560405160405180910390a45050565b6000806111d5836107c0565b90508073ffffffffffffffffffffffffffffffffffffffff168473ffffffffffffffffffffffffffffffffffffffff16148061121757506112168185610f3b565b5b8061125557508373ffffffffffffffffffffffffffffffffffffffff1661123d846105bc565b73ffffffffffffffffffffffffffffffffffffffff16145b91505092915050565b8273ffffffffffffffffffffffffffffffffffffffff1661127e826107c0565b73ffffffffffffffffffffffffffffffffffffffff16146112d4576040517f08c379a00000000000000000000000000000000000000000000000000000000081526004016112cb90612ffe565b60405180910390fd5b600073ffffffffffffffffffffffffffffffffffffffff168273ffffffffffffffffffffffffffffffffffffffff161415611344576040517f08c379a000000000000000000000000000000000000000000000000000000000815260040161133b90613090565b60405180910390fd5b61134f838383611bae565b61135a600082611110565b6001600360008573ffffffffffffffffffffffffffffffffffffffff1673ffffffffffffffffffffffffffffffffffffffff16815260200190815260200160002060008282546113aa91906130b0565b925050819055506001600360008473ffffffffffffffffffffffffffffffffffffffff1673ffffffffffffffffffffffffffffffffffffffff168152602001908152602001600020600082825461140191906130e4565b92505081905550816002600083815260200190815260200160002060006101000a81548173ffffffffffffffffffffffffffffffffffffffff021916908373ffffffffffffffffffffffffffffffffffffffff160217905550808273ffffffffffffffffffffffffffffffffffffffff168473ffffffffffffffffffffffffffffffffffffffff167fddf252ad1be2c89b69c2b068fc378daa952ba7f163c4a11628f55a4df523b3ef60405160405180910390a46114c0838383611bb3565b505050565b600081600001549050919050565b6000806114e060086114c5565b905060005b8181101561154b578373ffffffffffffffffffffffffffffffffffffffff1661150d826107c0565b73ffffffffffffffffffffffffffffffffffffffff16141561153857828061153490612cbe565b9350505b808061154390612cbe565b9150506114e5565b5050919050565b61155a611108565b73ffffffffffffffffffffffffffffffffffffffff16611578610abd565b73ffffffffffffffffffffffffffffffffffffffff16146115ce576040517f08c379a00000000000000000000000000000000000000000000000000000000081526004016115c590613186565b60405180910390fd5b565b6000600760009054906101000a900473ffffffffffffffffffffffffffffffffffffffff16905081600760006101000a81548173ffffffffffffffffffffffffffffffffffffffff021916908373ffffffffffffffffffffffffffffffffffffffff1602179055508173ffffffffffffffffffffffffffffffffffffffff168173ffffffffffffffffffffffffffffffffffffffff167f8be0079c531659141344cd1fd0a4f28419497f9722a3daafe3b4186f6b6457e060405160405180910390a35050565b600073ffffffffffffffffffffffffffffffffffffffff168273ffffffffffffffffffffffffffffffffffffffff161415611706576040517f08c379a00000000000000000000000000000000000000000000000000000000081526004016116fd906131f2565b60405180910390fd5b61170f81611b42565b1561174f576040517f08c379a00000000000000000000000000000000000000000000000000000000081526004016117469061325e565b60405180910390fd5b61175b60008383611bae565b6001600360008473ffffffffffffffffffffffffffffffffffffffff1673ffffffffffffffffffffffffffffffffffffffff16815260200190815260200160002060008282546117ab91906130e4565b92505081905550816002600083815260200190815260200160002060006101000a81548173ffffffffffffffffffffffffffffffffffffffff021916908373ffffffffffffffffffffffffffffffffffffffff160217905550808273ffffffffffffffffffffffffffffffffffffffff16600073ffffffffffffffffffffffffffffffffffffffff167fddf252ad1be2c89b69c2b068fc378daa952ba7f163c4a11628f55a4df523b3ef60405160405180910390a461186c60008383611bb3565b5050565b61187982611b42565b6118b8576040517f08c379a00000000000000000000000000000000000000000000000000000000081526004016118af906132f0565b60405180910390fd5b806006600084815260200190815260200160002090805190602001906118df929190611ec4565b505050565b6001816000016000828254019250508190555050565b8173ffffffffffffffffffffffffffffffffffffffff168373ffffffffffffffffffffffffffffffffffffffff161415611969576040517f08c379a00000000000000000000000000000000000000000000000000000000081526004016119609061335c565b60405180910390fd5b80600560008573ffffffffffffffffffffffffffffffffffffffff1673ffffffffffffffffffffffffffffffffffffffff16815260200190815260200160002060008473ffffffffffffffffffffffffffffffffffffffff1673ffffffffffffffffffffffffffffffffffffffff16815260200190815260200160002060006101000a81548160ff0219169083151502179055508173ffffffffffffffffffffffffffffffffffffffff168373ffffffffffffffffffffffffffffffffffffffff167f17307eab39ab6107e8899845ad3d59bd9653f200f220920489ca2b5937696c3183604051611a5a919061201b565b60405180910390a3505050565b611a7284848461125e565b611a7e84848484611bb8565b611abd576040517f08c379a0000000000000000000000000000000000000000000000000000000008152600401611ab4906133ee565b60405180910390fd5b50505050565b606060405180602001604052806000815250905090565b6060611ae5826110bd565b6000611aef611ac3565b90506000815111611b0f5760405180602001604052806000815250611b3a565b80611b1984611d40565b604051602001611b2a929190612e5d565b6040516020818303038152906040525b915050919050565b60008073ffffffffffffffffffffffffffffffffffffffff166002600084815260200190815260200160002060009054906101000a900473ffffffffffffffffffffffffffffffffffffffff1673ffffffffffffffffffffffffffffffffffffffff1614159050919050565b505050565b505050565b6000611bd98473ffffffffffffffffffffffffffffffffffffffff16611ea1565b15611d33578373ffffffffffffffffffffffffffffffffffffffff1663150b7a02611c02611108565b8786866040518563ffffffff1660e01b8152600401611c249493929190613463565b6020604051808303816000875af1925050508015611c6057506040513d601f19601f82011682018060405250810190611c5d91906134c4565b60015b611ce3573d8060008114611c90576040519150601f19603f3d011682016040523d82523d6000602084013e611c95565b606091505b50600081511415611cdb576040517f08c379a0000000000000000000000000000000000000000000000000000000008152600401611cd2906133ee565b60405180910390fd5b805181602001fd5b63150b7a0260e01b7bffffffffffffffffffffffffffffffffffffffffffffffffffffffff1916817bffffffffffffffffffffffffffffffffffffffffffffffffffffffff191614915050611d38565b600190505b949350505050565b60606000821415611d88576040518060400160405280600181526020017f30000000000000000000000000000000000000000000000000000000000000008152509050611e9c565b600082905060005b60008214611dba578080611da390612cbe565b915050600a82611db39190613520565b9150611d90565b60008167ffffffffffffffff811115611dd657611dd561254b565b5b6040519080825280601f01601f191660200182016040528015611e085781602001600182028036833780820191505090505b5090505b60008514611e9557600182611e2191906130b0565b9150600a85611e309190613551565b6030611e3c91906130e4565b60f81b818381518110611e5257611e51612c60565b5b60200101907effffffffffffffffffffffffffffffffffffffffffffffffffffffffffffff1916908160001a905350600a85611e8e9190613520565b9450611e0c565b8093505050505b919050565b6000808273ffffffffffffffffffffffffffffffffffffffff163b119050919050565b828054611ed090612a0c565b90600052602060002090601f016020900481019282611ef25760008555611f39565b82601f10611f0b57805160ff1916838001178555611f39565b82800160010185558215611f39579182015b82811115611f38578251825591602001919060010190611f1d565b5b509050611f469190611f4a565b5090565b5b80821115611f63576000816000905550600101611f4b565b5090565b6000604051905090565b600080fd5b600080fd5b60007fffffffff0000000000000000000000000000000000000000000000000000000082169050919050565b611fb081611f7b565b8114611fbb57600080fd5b50565b600081359050611fcd81611fa7565b92915050565b600060208284031215611fe957611fe8611f71565b5b6000611ff784828501611fbe565b91505092915050565b60008115159050919050565b61201581612000565b82525050565b6000602082019050612030600083018461200c565b92915050565b600081519050919050565b600082825260208201905092915050565b60005b83811015612070578082015181840152602081019050612055565b8381111561207f576000848401525b50505050565b6000601f19601f8301169050919050565b60006120a182612036565b6120ab8185612041565b93506120bb818560208601612052565b6120c481612085565b840191505092915050565b600060208201905081810360008301526120e98184612096565b905092915050565b6000819050919050565b612104816120f1565b811461210f57600080fd5b50565b600081359050612121816120fb565b92915050565b60006020828403121561213d5761213c611f71565b5b600061214b84828501612112565b91505092915050565b600073ffffffffffffffffffffffffffffffffffffffff82169050919050565b600061217f82612154565b9050919050565b61218f81612174565b82525050565b60006020820190506121aa6000830184612186565b92915050565b6121b981612174565b81146121c457600080fd5b50565b6000813590506121d6816121b0565b92915050565b600080604083850312156121f3576121f2611f71565b5b6000612201858286016121c7565b925050602061221285828601612112565b9150509250929050565b60008060006060848603121561223557612234611f71565b5b6000612243868287016121c7565b9350506020612254868287016121c7565b925050604061226586828701612112565b9150509250925092565b6000819050919050565b600061229461228f61228a84612154565b61226f565b612154565b9050919050565b60006122a682612279565b9050919050565b60006122b88261229b565b9050919050565b6122c8816122ad565b82525050565b60006020820190506122e360008301846122bf565b92915050565b6000602082840312156122ff576122fe611f71565b5b600061230d848285016121c7565b91505092915050565b600081519050919050565b600082825260208201905092915050565b6000819050602082019050919050565b61234b816120f1565b82525050565b600061235d8383612342565b60208301905092915050565b6000602082019050919050565b600061238182612316565b61238b8185612321565b935061239683612332565b8060005b838110156123c75781516123ae8882612351565b97506123b983612369565b92505060018101905061239a565b5085935050505092915050565b600081519050919050565b600082825260208201905092915050565b6000819050602082019050919050565b600082825260208201905092915050565b600061241c82612036565b6124268185612400565b9350612436818560208601612052565b61243f81612085565b840191505092915050565b60006124568383612411565b905092915050565b6000602082019050919050565b6000612476826123d4565b61248081856123df565b935083602082028501612492856123f0565b8060005b858110156124ce57848403895281516124af858261244a565b94506124ba8361245e565b925060208a01995050600181019050612496565b50829750879550505050505092915050565b600060408201905081810360008301526124fa8185612376565b9050818103602083015261250e818461246b565b90509392505050565b612520816120f1565b82525050565b600060208201905061253b6000830184612517565b92915050565b600080fd5b600080fd5b7f4e487b7100000000000000000000000000000000000000000000000000000000600052604160045260246000fd5b61258382612085565b810181811067ffffffffffffffff821117156125a2576125a161254b565b5b80604052505050565b60006125b5611f67565b90506125c1828261257a565b919050565b600067ffffffffffffffff8211156125e1576125e061254b565b5b6125ea82612085565b9050602081019050919050565b82818337600083830152505050565b6000612619612614846125c6565b6125ab565b90508281526020810184848401111561263557612634612546565b5b6126408482856125f7565b509392505050565b600082601f83011261265d5761265c612541565b5b813561266d848260208601612606565b91505092915050565b600080fd5b600080fd5b60008083601f84011261269657612695612541565b5b8235905067ffffffffffffffff8111156126b3576126b2612676565b5b6020830191508360018202830111156126cf576126ce61267b565b5b9250929050565b600080600080606085870312156126f0576126ef611f71565b5b60006126fe878288016121c7565b945050602085013567ffffffffffffffff81111561271f5761271e611f76565b5b61272b87828801612648565b935050604085013567ffffffffffffffff81111561274c5761274b611f76565b5b61275887828801612680565b925092505092959194509250565b61276f81612000565b811461277a57600080fd5b50565b60008135905061278c81612766565b92915050565b600080604083850312156127a9576127a8611f71565b5b60006127b7858286016121c7565b92505060206127c88582860161277d565b9150509250929050565b600067ffffffffffffffff8211156127ed576127ec61254b565b5b6127f682612085565b9050602081019050919050565b6000612816612811846127d2565b6125ab565b90508281526020810184848401111561283257612831612546565b5b61283d8482856125f7565b509392505050565b600082601f83011261285a57612859612541565b5b813561286a848260208601612803565b91505092915050565b6000806000806080858703121561288d5761288c611f71565b5b600061289b878288016121c7565b94505060206128ac878288016121c7565b93505060406128bd87828801612112565b925050606085013567ffffffffffffffff8111156128de576128dd611f76565b5b6128ea87828801612845565b91505092959194509250565b60006129018261229b565b9050919050565b612911816128f6565b82525050565b600060208201905061292c6000830184612908565b92915050565b600061293d82612174565b9050919050565b61294d81612932565b811461295857600080fd5b50565b60008135905061296a81612944565b92915050565b60006020828403121561298657612985611f71565b5b60006129948482850161295b565b91505092915050565b600080604083850312156129b4576129b3611f71565b5b60006129c2858286016121c7565b92505060206129d3858286016121c7565b9150509250929050565b7f4e487b7100000000000000000000000000000000000000000000000000000000600052602260045260246000fd5b60006002820490506001821680612a2457607f821691505b60208210811415612a3857612a376129dd565b5b50919050565b7f4552433732313a20617070726f76616c20746f2063757272656e74206f776e6560008201527f7200000000000000000000000000000000000000000000000000000000000000602082015250565b6000612a9a602183612041565b9150612aa582612a3e565b604082019050919050565b60006020820190508181036000830152612ac981612a8d565b9050919050565b7f4552433732313a20617070726f76652063616c6c6572206973206e6f7420746f60008201527f6b656e206f776e6572206e6f7220617070726f76656420666f7220616c6c0000602082015250565b6000612b2c603e83612041565b9150612b3782612ad0565b604082019050919050565b60006020820190508181036000830152612b5b81612b1f565b9050919050565b7f4552433732313a2063616c6c6572206973206e6f7420746f6b656e206f776e6560008201527f72206e6f7220617070726f766564000000000000000000000000000000000000602082015250565b6000612bbe602e83612041565b9150612bc982612b62565b604082019050919050565b60006020820190508181036000830152612bed81612bb1565b9050919050565b7f4552433732313a20696e76616c696420746f6b656e2049440000000000000000600082015250565b6000612c2a601883612041565b9150612c3582612bf4565b602082019050919050565b60006020820190508181036000830152612c5981612c1d565b9050919050565b7f4e487b7100000000000000000000000000000000000000000000000000000000600052603260045260246000fd5b7f4e487b7100000000000000000000000000000000000000000000000000000000600052601160045260246000fd5b6000612cc9826120f1565b91507fffffffffffffffffffffffffffffffffffffffffffffffffffffffffffffffff821415612cfc57612cfb612c8f565b5b600182019050919050565b7f4552433732313a2061646472657373207a65726f206973206e6f74206120766160008201527f6c6964206f776e65720000000000000000000000000000000000000000000000602082015250565b6000612d63602983612041565b9150612d6e82612d07565b604082019050919050565b60006020820190508181036000830152612d9281612d56565b9050919050565b6000612da58385612041565b9350612db28385846125f7565b612dbb83612085565b840190509392505050565b6000604082019050612ddb6000830186612186565b8181036020830152612dee818486612d99565b9050949350505050565b6000604082019050612e0d6000830185612186565b612e1a6020830184612517565b9392505050565b600081905092915050565b6000612e3782612036565b612e418185612e21565b9350612e51818560208601612052565b80840191505092915050565b6000612e698285612e2c565b9150612e758284612e2c565b91508190509392505050565b6000606082019050612e966000830186612186565b612ea36020830185612186565b612eb06040830184612517565b949350505050565b600081519050612ec781612766565b92915050565b600060208284031215612ee357612ee2611f71565b5b6000612ef184828501612eb8565b91505092915050565b7f4f776e61626c653a206e6577206f776e657220697320746865207a65726f206160008201527f6464726573730000000000000000000000000000000000000000000000000000602082015250565b6000612f56602683612041565b9150612f6182612efa565b604082019050919050565b60006020820190508181036000830152612f8581612f49565b9050919050565b7f4552433732313a207472616e736665722066726f6d20696e636f72726563742060008201527f6f776e6572000000000000000000000000000000000000000000000000000000602082015250565b6000612fe8602583612041565b9150612ff382612f8c565b604082019050919050565b6000602082019050818103600083015261301781612fdb565b9050919050565b7f4552433732313a207472616e7366657220746f20746865207a65726f2061646460008201527f7265737300000000000000000000000000000000000000000000000000000000602082015250565b600061307a602483612041565b91506130858261301e565b604082019050919050565b600060208201905081810360008301526130a98161306d565b9050919050565b60006130bb826120f1565b91506130c6836120f1565b9250828210156130d9576130d8612c8f565b5b828203905092915050565b60006130ef826120f1565b91506130fa836120f1565b9250827fffffffffffffffffffffffffffffffffffffffffffffffffffffffffffffffff0382111561312f5761312e612c8f565b5b828201905092915050565b7f4f776e61626c653a2063616c6c6572206973206e6f7420746865206f776e6572600082015250565b6000613170602083612041565b915061317b8261313a565b602082019050919050565b6000602082019050818103600083015261319f81613163565b9050919050565b7f4552433732313a206d696e7420746f20746865207a65726f2061646472657373600082015250565b60006131dc602083612041565b91506131e7826131a6565b602082019050919050565b6000602082019050818103600083015261320b816131cf565b9050919050565b7f4552433732313a20746f6b656e20616c7265616479206d696e74656400000000600082015250565b6000613248601c83612041565b915061325382613212565b602082019050919050565b600060208201905081810360008301526132778161323b565b9050919050565b7f45524337323155524953746f726167653a2055524920736574206f66206e6f6e60008201527f6578697374656e7420746f6b656e000000000000000000000000000000000000602082015250565b60006132da602e83612041565b91506132e58261327e565b604082019050919050565b60006020820190508181036000830152613309816132cd565b9050919050565b7f4552433732313a20617070726f766520746f2063616c6c657200000000000000600082015250565b6000613346601983612041565b915061335182613310565b602082019050919050565b6000602082019050818103600083015261337581613339565b9050919050565b7f4552433732313a207472616e7366657220746f206e6f6e20455243373231526560008201527f63656976657220696d706c656d656e7465720000000000000000000000000000602082015250565b60006133d8603283612041565b91506133e38261337c565b604082019050919050565b60006020820190508181036000830152613407816133cb565b9050919050565b600081519050919050565b600082825260208201905092915050565b60006134358261340e565b61343f8185613419565b935061344f818560208601612052565b61345881612085565b840191505092915050565b60006080820190506134786000830187612186565b6134856020830186612186565b6134926040830185612517565b81810360608301526134a4818461342a565b905095945050505050565b6000815190506134be81611fa7565b92915050565b6000602082840312156134da576134d9611f71565b5b60006134e8848285016134af565b91505092915050565b7f4e487b7100000000000000000000000000000000000000000000000000000000600052601260045260246000fd5b600061352b826120f1565b9150613536836120f1565b925082613546576135456134f1565b5b828204905092915050565b600061355c826120f1565b9150613567836120f1565b925082613577576135766134f1565b5b82820690509291505056fea26469706673582212202ac087d49a7d56f31aaa3af1eb1f6f99f13867b79c270a4f1d297a1191b5945164736f6c634300080a0033",
  "linkReferences": {},
  "deployedLinkReferences": {}
}