{
  "_format": "hh-sol-artifact-1",
  "contractName": "SideBStarvingNFT",
  "sourceName": "contracts/SideBStarvingNFT.sol",
  "abi": [
    {
      "inputs": [
        {
          "internalType": "address",
          "name": "_sideA",
          "type": "address"
        }
      ],
      "stateMutability": "nonpayable",
      "type": "constructor"
    },
    {
      "anonymous": false,
      "inputs": [
        {
          "indexed": true,
          "internalType": "address",
          "name": "owner",
          "type": "address"
        },
        {
          "indexed": true,
          "internalType": "address",
          "name": "approved",
          "type": "address"
        },
        {
          "indexed": true,
          "internalType": "uint256",
          "name": "tokenId",
          "type": "uint256"
        }
      ],
      "name": "Approval",
      "type": "event"
    },
    {
      "anonymous": false,
      "inputs": [
        {
          "indexed": true,
          "internalType": "address",
          "name": "owner",
          "type": "address"
        },
        {
          "indexed": true,
          "internalType": "address",
          "name": "operator",
          "type": "address"
        },
        {
          "indexed": false,
          "internalType": "bool",
          "name": "approved",
          "type": "bool"
        }
      ],
      "name": "ApprovalForAll",
      "type": "event"
    },
    {
      "anonymous": false,
      "inputs": [
        {
          "indexed": false,
          "internalType": "address",
          "name": "to",
          "type": "address"
        },
        {
          "indexed": false,
          "internalType": "uint256",
          "name": "tokenId",
          "type": "uint256"
        }
      ],
      "name": "Mint",
      "type": "event"
    },
    {
      "anonymous": false,
      "inputs": [
        {
          "indexed": true,
          "internalType": "address",
          "name": "from",
          "type": "address"
        },
        {
          "indexed": true,
          "internalType": "address",
          "name": "to",
          "type": "address"
        },
        {
          "indexed": true,
          "internalType": "uint256",
          "name": "tokenId",
          "type": "uint256"
        }
      ],
      "name": "Transfer",
      "type": "event"
    },
    {
      "inputs": [
        {
          "internalType": "address",
          "name": "to",
          "type": "address"
        },
        {
          "internalType": "uint256",
          "name": "tokenId",
          "type": "uint256"
        }
      ],
      "name": "approve",
      "outputs": [],
      "stateMutability": "nonpayable",
      "type": "function"
    },
    {
      "inputs": [
        {
          "internalType": "address",
          "name": "owner",
          "type": "address"
        }
      ],
      "name": "balanceOf",
      "outputs": [
        {
          "internalType": "uint256",
          "name": "",
          "type": "uint256"
        }
      ],
      "stateMutability": "view",
      "type": "function"
    },
    {
      "inputs": [
        {
          "internalType": "uint256",
          "name": "tokenId",
          "type": "uint256"
        }
      ],
      "name": "getApproved",
      "outputs": [
        {
          "internalType": "address",
          "name": "",
          "type": "address"
        }
      ],
      "stateMutability": "view",
      "type": "function"
    },
    {
      "inputs": [
        {
          "internalType": "address",
          "name": "owner",
          "type": "address"
        },
        {
          "internalType": "address",
          "name": "operator",
          "type": "address"
        }
      ],
      "name": "isApprovedForAll",
      "outputs": [
        {
          "internalType": "bool",
          "name": "",
          "type": "bool"
        }
      ],
      "stateMutability": "view",
      "type": "function"
    },
    {
      "inputs": [
        {
          "internalType": "address",
          "name": "to",
          "type": "address"
        },
        {
          "internalType": "string",
          "name": "tokenURI",
          "type": "string"
        }
      ],
      "name": "mint",
      "outputs": [],
      "stateMutability": "nonpayable",
      "type": "function"
    },
    {
      "inputs": [],
      "name": "name",
      "outputs": [
        {
          "internalType": "string",
          "name": "",
          "type": "string"
        }
      ],
      "stateMutability": "view",
      "type": "function"
    },
    {
      "inputs": [
        {
          "internalType": "uint256",
          "name": "tokenId",
          "type": "uint256"
        }
      ],
      "name": "ownerOf",
      "outputs": [
        {
          "internalType": "address",
          "name": "",
          "type": "address"
        }
      ],
      "stateMutability": "view",
      "type": "function"
    },
    {
      "inputs": [
        {
          "internalType": "address",
          "name": "from",
          "type": "address"
        },
        {
          "internalType": "address",
          "name": "to",
          "type": "address"
        },
        {
          "internalType": "uint256",
          "name": "tokenId",
          "type": "uint256"
        }
      ],
      "name": "safeTransferFrom",
      "outputs": [],
      "stateMutability": "nonpayable",
      "type": "function"
    },
    {
      "inputs": [
        {
          "internalType": "address",
          "name": "from",
          "type": "address"
        },
        {
          "internalType": "address",
          "name": "to",
          "type": "address"
        },
        {
          "internalType": "uint256",
          "name": "tokenId",
          "type": "uint256"
        },
        {
          "internalType": "bytes",
          "name": "data",
          "type": "bytes"
        }
      ],
      "name": "safeTransferFrom",
      "outputs": [],
      "stateMutability": "nonpayable",
      "type": "function"
    },
    {
      "inputs": [
        {
          "internalType": "address",
          "name": "operator",
          "type": "address"
        },
        {
          "internalType": "bool",
          "name": "approved",
          "type": "bool"
        }
      ],
      "name": "setApprovalForAll",
      "outputs": [],
      "stateMutability": "nonpayable",
      "type": "function"
    },
    {
      "inputs": [],
      "name": "sideA",
      "outputs": [
        {
          "internalType": "address",
          "name": "",
          "type": "address"
        }
      ],
      "stateMutability": "view",
      "type": "function"
    },
    {
      "inputs": [
        {
          "internalType": "bytes4",
          "name": "interfaceId",
          "type": "bytes4"
        }
      ],
      "name": "supportsInterface",
      "outputs": [
        {
          "internalType": "bool",
          "name": "",
          "type": "bool"
        }
      ],
      "stateMutability": "view",
      "type": "function"
    },
    {
      "inputs": [],
      "name": "symbol",
      "outputs": [
        {
          "internalType": "string",
          "name": "",
          "type": "string"
        }
      ],
      "stateMutability": "view",
      "type": "function"
    },
    {
      "inputs": [
        {
          "internalType": "uint256",
          "name": "tokenId",
          "type": "uint256"
        }
      ],
      "name": "tokenURI",
      "outputs": [
        {
          "internalType": "string",
          "name": "",
          "type": "string"
        }
      ],
      "stateMutability": "view",
      "type": "function"
    },
    {
      "inputs": [
        {
          "internalType": "address",
          "name": "from",
          "type": "address"
        },
        {
          "internalType": "address",
          "name": "to",
          "type": "address"
        },
        {
          "internalType": "uint256",
          "name": "tokenId",
          "type": "uint256"
        }
      ],
      "name": "transferFrom",
      "outputs": [],
      "stateMutability": "nonpayable",
      "type": "function"
    }
  ],
  "bytecode": "0x60806040523480156200001157600080fd5b5060405162002d1238038062002d12833981810160405281019062000037919062000239565b6040518060400160405280601881526020017f5374617276696e67204368696c6472656e2053696465204200000000000000008152506040518060400160405280600381526020017f53544200000000000000000000000000000000000000000000000000000000008152508160009080519060200190620000bb9291906200011f565b508060019080519060200190620000d49291906200011f565b50505080600860006101000a81548173ffffffffffffffffffffffffffffffffffffffff021916908373ffffffffffffffffffffffffffffffffffffffff16021790555050620002d0565b8280546200012d906200029a565b90600052602060002090601f0160209004810192826200015157600085556200019d565b82601f106200016c57805160ff19168380011785556200019d565b828001600101855582156200019d579182015b828111156200019c5782518255916020019190600101906200017f565b5b509050620001ac9190620001b0565b5090565b5b80821115620001cb576000816000905550600101620001b1565b5090565b600080fd5b600073ffffffffffffffffffffffffffffffffffffffff82169050919050565b60006200020182620001d4565b9050919050565b6200021381620001f4565b81146200021f57600080fd5b50565b600081519050620002338162000208565b92915050565b600060208284031215620002525762000251620001cf565b5b6000620002628482850162000222565b91505092915050565b7f4e487b7100000000000000000000000000000000000000000000000000000000600052602260045260246000fd5b60006002820490506001821680620002b357607f821691505b60208210811415620002ca57620002c96200026b565b5b50919050565b612a3280620002e06000396000f3fe608060405234801561001057600080fd5b50600436106100f55760003560e01c806370a0823111610097578063c87b56dd11610066578063c87b56dd14610282578063d0def521146102b2578063e985e9c5146102ce578063f5f41c9a146102fe576100f5565b806370a08231146101fc57806395d89b411461022c578063a22cb4651461024a578063b88d4fde14610266576100f5565b8063095ea7b3116100d3578063095ea7b31461017857806323b872dd1461019457806342842e0e146101b05780636352211e146101cc576100f5565b806301ffc9a7146100fa57806306fdde031461012a578063081812fc14610148575b600080fd5b610114600480360381019061010f919061196d565b61031c565b60405161012191906119b5565b60405180910390f35b6101326103fe565b60405161013f9190611a69565b60405180910390f35b610162600480360381019061015d9190611ac1565b610490565b60405161016f9190611b2f565b60405180910390f35b610192600480360381019061018d9190611b76565b6104d6565b005b6101ae60048036038101906101a99190611bb6565b6105ee565b005b6101ca60048036038101906101c59190611bb6565b61064e565b005b6101e660048036038101906101e19190611ac1565b61066e565b6040516101f39190611b2f565b60405180910390f35b61021660048036038101906102119190611c09565b610720565b6040516102239190611c45565b60405180910390f35b6102346107d8565b6040516102419190611a69565b60405180910390f35b610264600480360381019061025f9190611c8c565b61086a565b005b610280600480360381019061027b9190611e01565b610880565b005b61029c60048036038101906102979190611ac1565b6108e2565b6040516102a99190611a69565b60405180910390f35b6102cc60048036038101906102c79190611f25565b6109f5565b005b6102e860048036038101906102e39190611f81565b610af6565b6040516102f591906119b5565b60405180910390f35b610306610b8a565b6040516103139190611b2f565b60405180910390f35b60007f80ac58cd000000000000000000000000000000000000000000000000000000007bffffffffffffffffffffffffffffffffffffffffffffffffffffffff1916827bffffffffffffffffffffffffffffffffffffffffffffffffffffffff191614806103e757507f5b5e139f000000000000000000000000000000000000000000000000000000007bffffffffffffffffffffffffffffffffffffffffffffffffffffffff1916827bffffffffffffffffffffffffffffffffffffffffffffffffffffffff1916145b806103f757506103f682610bb0565b5b9050919050565b60606000805461040d90611ff0565b80601f016020809104026020016040519081016040528092919081815260200182805461043990611ff0565b80156104865780601f1061045b57610100808354040283529160200191610486565b820191906000526020600020905b81548152906001019060200180831161046957829003601f168201915b5050505050905090565b600061049b82610c1a565b6004600083815260200190815260200160002060009054906101000a900473ffffffffffffffffffffffffffffffffffffffff169050919050565b60006104e18261066e565b90508073ffffffffffffffffffffffffffffffffffffffff168373ffffffffffffffffffffffffffffffffffffffff161415610552576040517f08c379a000000000000000000000000000000000000000000000000000000000815260040161054990612094565b60405180910390fd5b8073ffffffffffffffffffffffffffffffffffffffff16610571610c65565b73ffffffffffffffffffffffffffffffffffffffff1614806105a0575061059f8161059a610c65565b610af6565b5b6105df576040517f08c379a00000000000000000000000000000000000000000000000000000000081526004016105d690612126565b60405180910390fd5b6105e98383610c6d565b505050565b6105ff6105f9610c65565b82610d26565b61063e576040517f08c379a0000000000000000000000000000000000000000000000000000000008152600401610635906121b8565b60405180910390fd5b610649838383610dbb565b505050565b61066983838360405180602001604052806000815250610880565b505050565b6000806002600084815260200190815260200160002060009054906101000a900473ffffffffffffffffffffffffffffffffffffffff169050600073ffffffffffffffffffffffffffffffffffffffff168173ffffffffffffffffffffffffffffffffffffffff161415610717576040517f08c379a000000000000000000000000000000000000000000000000000000000815260040161070e90612224565b60405180910390fd5b80915050919050565b60008073ffffffffffffffffffffffffffffffffffffffff168273ffffffffffffffffffffffffffffffffffffffff161415610791576040517f08c379a0000000000000000000000000000000000000000000000000000000008152600401610788906122b6565b60405180910390fd5b600360008373ffffffffffffffffffffffffffffffffffffffff1673ffffffffffffffffffffffffffffffffffffffff168152602001908152602001600020549050919050565b6060600180546107e790611ff0565b80601f016020809104026020016040519081016040528092919081815260200182805461081390611ff0565b80156108605780601f1061083557610100808354040283529160200191610860565b820191906000526020600020905b81548152906001019060200180831161084357829003601f168201915b5050505050905090565b61087c610875610c65565b8383611022565b5050565b61089161088b610c65565b83610d26565b6108d0576040517f08c379a00000000000000000000000000000000000000000000000000000000081526004016108c7906121b8565b60405180910390fd5b6108dc8484848461118f565b50505050565b60606108ed82610c1a565b600060066000848152602001908152602001600020805461090d90611ff0565b80601f016020809104026020016040519081016040528092919081815260200182805461093990611ff0565b80156109865780601f1061095b57610100808354040283529160200191610986565b820191906000526020600020905b81548152906001019060200180831161096957829003601f168201915b5050505050905060006109976111eb565b90506000815114156109ad5781925050506109f0565b6000825111156109e25780826040516020016109ca929190612312565b604051602081830303815290604052925050506109f0565b6109eb84611202565b925050505b919050565b600860009054906101000a900473ffffffffffffffffffffffffffffffffffffffff1673ffffffffffffffffffffffffffffffffffffffff16610a36610c65565b73ffffffffffffffffffffffffffffffffffffffff1614610a8c576040517f08c379a0000000000000000000000000000000000000000000000000000000008152600401610a8390612382565b60405180910390fd5b6000610a98600761126a565b9050610aa48382611278565b610aae8183611452565b7f0f6798a560793a54c3bcfe86a93cde1e73087d944c0ea20544137d41213968858382604051610adf9291906123a2565b60405180910390a1610af160076114c6565b505050565b6000600560008473ffffffffffffffffffffffffffffffffffffffff1673ffffffffffffffffffffffffffffffffffffffff16815260200190815260200160002060008373ffffffffffffffffffffffffffffffffffffffff1673ffffffffffffffffffffffffffffffffffffffff16815260200190815260200160002060009054906101000a900460ff16905092915050565b600860009054906101000a900473ffffffffffffffffffffffffffffffffffffffff1681565b60007f01ffc9a7000000000000000000000000000000000000000000000000000000007bffffffffffffffffffffffffffffffffffffffffffffffffffffffff1916827bffffffffffffffffffffffffffffffffffffffffffffffffffffffff1916149050919050565b610c23816114dc565b610c62576040517f08c379a0000000000000000000000000000000000000000000000000000000008152600401610c5990612224565b60405180910390fd5b50565b600033905090565b816004600083815260200190815260200160002060006101000a81548173ffffffffffffffffffffffffffffffffffffffff021916908373ffffffffffffffffffffffffffffffffffffffff160217905550808273ffffffffffffffffffffffffffffffffffffffff16610ce08361066e565b73ffffffffffffffffffffffffffffffffffffffff167f8c5be1e5ebec7d5bd14f71427d1e84f3dd0314c0f7b2291e5b200ac8c7c3b92560405160405180910390a45050565b600080610d328361066e565b90508073ffffffffffffffffffffffffffffffffffffffff168473ffffffffffffffffffffffffffffffffffffffff161480610d745750610d738185610af6565b5b80610db257508373ffffffffffffffffffffffffffffffffffffffff16610d9a84610490565b73ffffffffffffffffffffffffffffffffffffffff16145b91505092915050565b8273ffffffffffffffffffffffffffffffffffffffff16610ddb8261066e565b73ffffffffffffffffffffffffffffffffffffffff1614610e31576040517f08c379a0000000000000000000000000000000000000000000000000000000008152600401610e289061243d565b60405180910390fd5b600073ffffffffffffffffffffffffffffffffffffffff168273ffffffffffffffffffffffffffffffffffffffff161415610ea1576040517f08c379a0000000000000000000000000000000000000000000000000000000008152600401610e98906124cf565b60405180910390fd5b610eac838383611548565b610eb7600082610c6d565b6001600360008573ffffffffffffffffffffffffffffffffffffffff1673ffffffffffffffffffffffffffffffffffffffff1681526020019081526020016000206000828254610f07919061251e565b925050819055506001600360008473ffffffffffffffffffffffffffffffffffffffff1673ffffffffffffffffffffffffffffffffffffffff1681526020019081526020016000206000828254610f5e9190612552565b92505081905550816002600083815260200190815260200160002060006101000a81548173ffffffffffffffffffffffffffffffffffffffff021916908373ffffffffffffffffffffffffffffffffffffffff160217905550808273ffffffffffffffffffffffffffffffffffffffff168473ffffffffffffffffffffffffffffffffffffffff167fddf252ad1be2c89b69c2b068fc378daa952ba7f163c4a11628f55a4df523b3ef60405160405180910390a461101d83838361154d565b505050565b8173ffffffffffffffffffffffffffffffffffffffff168373ffffffffffffffffffffffffffffffffffffffff161415611091576040517f08c379a0000000000000000000000000000000000000000000000000000000008152600401611088906125f4565b60405180910390fd5b80600560008573ffffffffffffffffffffffffffffffffffffffff1673ffffffffffffffffffffffffffffffffffffffff16815260200190815260200160002060008473ffffffffffffffffffffffffffffffffffffffff1673ffffffffffffffffffffffffffffffffffffffff16815260200190815260200160002060006101000a81548160ff0219169083151502179055508173ffffffffffffffffffffffffffffffffffffffff168373ffffffffffffffffffffffffffffffffffffffff167f17307eab39ab6107e8899845ad3d59bd9653f200f220920489ca2b5937696c318360405161118291906119b5565b60405180910390a3505050565b61119a848484610dbb565b6111a684848484611552565b6111e5576040517f08c379a00000000000000000000000000000000000000000000000000000000081526004016111dc90612686565b60405180910390fd5b50505050565b606060405180602001604052806000815250905090565b606061120d82610c1a565b60006112176111eb565b905060008151116112375760405180602001604052806000815250611262565b80611241846116da565b604051602001611252929190612312565b6040516020818303038152906040525b915050919050565b600081600001549050919050565b600073ffffffffffffffffffffffffffffffffffffffff168273ffffffffffffffffffffffffffffffffffffffff1614156112e8576040517f08c379a00000000000000000000000000000000000000000000000000000000081526004016112df906126f2565b60405180910390fd5b6112f1816114dc565b15611331576040517f08c379a00000000000000000000000000000000000000000000000000000000081526004016113289061275e565b60405180910390fd5b61133d60008383611548565b6001600360008473ffffffffffffffffffffffffffffffffffffffff1673ffffffffffffffffffffffffffffffffffffffff168152602001908152602001600020600082825461138d9190612552565b92505081905550816002600083815260200190815260200160002060006101000a81548173ffffffffffffffffffffffffffffffffffffffff021916908373ffffffffffffffffffffffffffffffffffffffff160217905550808273ffffffffffffffffffffffffffffffffffffffff16600073ffffffffffffffffffffffffffffffffffffffff167fddf252ad1be2c89b69c2b068fc378daa952ba7f163c4a11628f55a4df523b3ef60405160405180910390a461144e6000838361154d565b5050565b61145b826114dc565b61149a576040517f08c379a0000000000000000000000000000000000000000000000000000000008152600401611491906127f0565b60405180910390fd5b806006600084815260200190815260200160002090805190602001906114c192919061185e565b505050565b6001816000016000828254019250508190555050565b60008073ffffffffffffffffffffffffffffffffffffffff166002600084815260200190815260200160002060009054906101000a900473ffffffffffffffffffffffffffffffffffffffff1673ffffffffffffffffffffffffffffffffffffffff1614159050919050565b505050565b505050565b60006115738473ffffffffffffffffffffffffffffffffffffffff1661183b565b156116cd578373ffffffffffffffffffffffffffffffffffffffff1663150b7a0261159c610c65565b8786866040518563ffffffff1660e01b81526004016115be9493929190612865565b6020604051808303816000875af19250505080156115fa57506040513d601f19601f820116820180604052508101906115f791906128c6565b60015b61167d573d806000811461162a576040519150601f19603f3d011682016040523d82523d6000602084013e61162f565b606091505b50600081511415611675576040517f08c379a000000000000000000000000000000000000000000000000000000000815260040161166c90612686565b60405180910390fd5b805181602001fd5b63150b7a0260e01b7bffffffffffffffffffffffffffffffffffffffffffffffffffffffff1916817bffffffffffffffffffffffffffffffffffffffffffffffffffffffff1916149150506116d2565b600190505b949350505050565b60606000821415611722576040518060400160405280600181526020017f30000000000000000000000000000000000000000000000000000000000000008152509050611836565b600082905060005b6000821461175457808061173d906128f3565b915050600a8261174d919061296b565b915061172a565b60008167ffffffffffffffff8111156117705761176f611cd6565b5b6040519080825280601f01601f1916602001820160405280156117a25781602001600182028036833780820191505090505b5090505b6000851461182f576001826117bb919061251e565b9150600a856117ca919061299c565b60306117d69190612552565b60f81b8183815181106117ec576117eb6129cd565b5b60200101907effffffffffffffffffffffffffffffffffffffffffffffffffffffffffffff1916908160001a905350600a85611828919061296b565b94506117a6565b8093505050505b919050565b6000808273ffffffffffffffffffffffffffffffffffffffff163b119050919050565b82805461186a90611ff0565b90600052602060002090601f01602090048101928261188c57600085556118d3565b82601f106118a557805160ff19168380011785556118d3565b828001600101855582156118d3579182015b828111156118d25782518255916020019190600101906118b7565b5b5090506118e091906118e4565b5090565b5b808211156118fd5760008160009055506001016118e5565b5090565b6000604051905090565b600080fd5b600080fd5b60007fffffffff0000000000000000000000000000000000000000000000000000000082169050919050565b61194a81611915565b811461195557600080fd5b50565b60008135905061196781611941565b92915050565b6000602082840312156119835761198261190b565b5b600061199184828501611958565b91505092915050565b60008115159050919050565b6119af8161199a565b82525050565b60006020820190506119ca60008301846119a6565b92915050565b600081519050919050565b600082825260208201905092915050565b60005b83811015611a0a5780820151818401526020810190506119ef565b83811115611a19576000848401525b50505050565b6000601f19601f8301169050919050565b6000611a3b826119d0565b611a4581856119db565b9350611a558185602086016119ec565b611a5e81611a1f565b840191505092915050565b60006020820190508181036000830152611a838184611a30565b905092915050565b6000819050919050565b611a9e81611a8b565b8114611aa957600080fd5b50565b600081359050611abb81611a95565b92915050565b600060208284031215611ad757611ad661190b565b5b6000611ae584828501611aac565b91505092915050565b600073ffffffffffffffffffffffffffffffffffffffff82169050919050565b6000611b1982611aee565b9050919050565b611b2981611b0e565b82525050565b6000602082019050611b446000830184611b20565b92915050565b611b5381611b0e565b8114611b5e57600080fd5b50565b600081359050611b7081611b4a565b92915050565b60008060408385031215611b8d57611b8c61190b565b5b6000611b9b85828601611b61565b9250506020611bac85828601611aac565b9150509250929050565b600080600060608486031215611bcf57611bce61190b565b5b6000611bdd86828701611b61565b9350506020611bee86828701611b61565b9250506040611bff86828701611aac565b9150509250925092565b600060208284031215611c1f57611c1e61190b565b5b6000611c2d84828501611b61565b91505092915050565b611c3f81611a8b565b82525050565b6000602082019050611c5a6000830184611c36565b92915050565b611c698161199a565b8114611c7457600080fd5b50565b600081359050611c8681611c60565b92915050565b60008060408385031215611ca357611ca261190b565b5b6000611cb185828601611b61565b9250506020611cc285828601611c77565b9150509250929050565b600080fd5b600080fd5b7f4e487b7100000000000000000000000000000000000000000000000000000000600052604160045260246000fd5b611d0e82611a1f565b810181811067ffffffffffffffff82111715611d2d57611d2c611cd6565b5b80604052505050565b6000611d40611901565b9050611d4c8282611d05565b919050565b600067ffffffffffffffff821115611d6c57611d6b611cd6565b5b611d7582611a1f565b9050602081019050919050565b82818337600083830152505050565b6000611da4611d9f84611d51565b611d36565b905082815260208101848484011115611dc057611dbf611cd1565b5b611dcb848285611d82565b509392505050565b600082601f830112611de857611de7611ccc565b5b8135611df8848260208601611d91565b91505092915050565b60008060008060808587031215611e1b57611e1a61190b565b5b6000611e2987828801611b61565b9450506020611e3a87828801611b61565b9350506040611e4b87828801611aac565b925050606085013567ffffffffffffffff811115611e6c57611e6b611910565b5b611e7887828801611dd3565b91505092959194509250565b600067ffffffffffffffff821115611e9f57611e9e611cd6565b5b611ea882611a1f565b9050602081019050919050565b6000611ec8611ec384611e84565b611d36565b905082815260208101848484011115611ee457611ee3611cd1565b5b611eef848285611d82565b509392505050565b600082601f830112611f0c57611f0b611ccc565b5b8135611f1c848260208601611eb5565b91505092915050565b60008060408385031215611f3c57611f3b61190b565b5b6000611f4a85828601611b61565b925050602083013567ffffffffffffffff811115611f6b57611f6a611910565b5b611f7785828601611ef7565b9150509250929050565b60008060408385031215611f9857611f9761190b565b5b6000611fa685828601611b61565b9250506020611fb785828601611b61565b9150509250929050565b7f4e487b7100000000000000000000000000000000000000000000000000000000600052602260045260246000fd5b6000600282049050600182168061200857607f821691505b6020821081141561201c5761201b611fc1565b5b50919050565b7f4552433732313a20617070726f76616c20746f2063757272656e74206f776e6560008201527f7200000000000000000000000000000000000000000000000000000000000000602082015250565b600061207e6021836119db565b915061208982612022565b604082019050919050565b600060208201905081810360008301526120ad81612071565b9050919050565b7f4552433732313a20617070726f76652063616c6c6572206973206e6f7420746f60008201527f6b656e206f776e6572206e6f7220617070726f76656420666f7220616c6c0000602082015250565b6000612110603e836119db565b915061211b826120b4565b604082019050919050565b6000602082019050818103600083015261213f81612103565b9050919050565b7f4552433732313a2063616c6c6572206973206e6f7420746f6b656e206f776e6560008201527f72206e6f7220617070726f766564000000000000000000000000000000000000602082015250565b60006121a2602e836119db565b91506121ad82612146565b604082019050919050565b600060208201905081810360008301526121d181612195565b9050919050565b7f4552433732313a20696e76616c696420746f6b656e2049440000000000000000600082015250565b600061220e6018836119db565b9150612219826121d8565b602082019050919050565b6000602082019050818103600083015261223d81612201565b9050919050565b7f4552433732313a2061646472657373207a65726f206973206e6f74206120766160008201527f6c6964206f776e65720000000000000000000000000000000000000000000000602082015250565b60006122a06029836119db565b91506122ab82612244565b604082019050919050565b600060208201905081810360008301526122cf81612293565b9050919050565b600081905092915050565b60006122ec826119d0565b6122f681856122d6565b93506123068185602086016119ec565b80840191505092915050565b600061231e82856122e1565b915061232a82846122e1565b91508190509392505050565b7f53656e646572206973206e6f7420736964652041000000000000000000000000600082015250565b600061236c6014836119db565b915061237782612336565b602082019050919050565b6000602082019050818103600083015261239b8161235f565b9050919050565b60006040820190506123b76000830185611b20565b6123c46020830184611c36565b9392505050565b7f4552433732313a207472616e736665722066726f6d20696e636f72726563742060008201527f6f776e6572000000000000000000000000000000000000000000000000000000602082015250565b60006124276025836119db565b9150612432826123cb565b604082019050919050565b600060208201905081810360008301526124568161241a565b9050919050565b7f4552433732313a207472616e7366657220746f20746865207a65726f2061646460008201527f7265737300000000000000000000000000000000000000000000000000000000602082015250565b60006124b96024836119db565b91506124c48261245d565b604082019050919050565b600060208201905081810360008301526124e8816124ac565b9050919050565b7f4e487b7100000000000000000000000000000000000000000000000000000000600052601160045260246000fd5b600061252982611a8b565b915061253483611a8b565b925082821015612547576125466124ef565b5b828203905092915050565b600061255d82611a8b565b915061256883611a8b565b9250827fffffffffffffffffffffffffffffffffffffffffffffffffffffffffffffffff0382111561259d5761259c6124ef565b5b828201905092915050565b7f4552433732313a20617070726f766520746f2063616c6c657200000000000000600082015250565b60006125de6019836119db565b91506125e9826125a8565b602082019050919050565b6000602082019050818103600083015261260d816125d1565b9050919050565b7f4552433732313a207472616e7366657220746f206e6f6e20455243373231526560008201527f63656976657220696d706c656d656e7465720000000000000000000000000000602082015250565b60006126706032836119db565b915061267b82612614565b604082019050919050565b6000602082019050818103600083015261269f81612663565b9050919050565b7f4552433732313a206d696e7420746f20746865207a65726f2061646472657373600082015250565b60006126dc6020836119db565b91506126e7826126a6565b602082019050919050565b6000602082019050818103600083015261270b816126cf565b9050919050565b7f4552433732313a20746f6b656e20616c7265616479206d696e74656400000000600082015250565b6000612748601c836119db565b915061275382612712565b602082019050919050565b600060208201905081810360008301526127778161273b565b9050919050565b7f45524337323155524953746f726167653a2055524920736574206f66206e6f6e60008201527f6578697374656e7420746f6b656e000000000000000000000000000000000000602082015250565b60006127da602e836119db565b91506127e58261277e565b604082019050919050565b60006020820190508181036000830152612809816127cd565b9050919050565b600081519050919050565b600082825260208201905092915050565b600061283782612810565b612841818561281b565b93506128518185602086016119ec565b61285a81611a1f565b840191505092915050565b600060808201905061287a6000830187611b20565b6128876020830186611b20565b6128946040830185611c36565b81810360608301526128a6818461282c565b905095945050505050565b6000815190506128c081611941565b92915050565b6000602082840312156128dc576128db61190b565b5b60006128ea848285016128b1565b91505092915050565b60006128fe82611a8b565b91507fffffffffffffffffffffffffffffffffffffffffffffffffffffffffffffffff821415612931576129306124ef565b5b600182019050919050565b7f4e487b7100000000000000000000000000000000000000000000000000000000600052601260045260246000fd5b600061297682611a8b565b915061298183611a8b565b9250826129915761299061293c565b5b828204905092915050565b60006129a782611a8b565b91506129b283611a8b565b9250826129c2576129c161293c565b5b828206905092915050565b7f4e487b7100000000000000000000000000000000000000000000000000000000600052603260045260246000fdfea2646970667358221220b5d6f67d6dbf399053080d26fa5942d0384aa5cc081f8f882d2db9639d7baacd64736f6c634300080a0033",
  "linkReferences": {},
  "deployedLinkReferences": {}
}