{
  "_format": "hh-sol-artifact-1",
  "contractName": "Tap",
  "sourceName": "contracts/Tap.sol",
  "abi": [
    {
      "inputs": [],
      "stateMutability": "nonpayable",
      "type": "constructor"
    },
    {
      "anonymous": false,
      "inputs": [
        {
          "indexed": true,
          "internalType": "address",
          "name": "owner",
          "type": "address"
        },
        {
          "indexed": true,
          "internalType": "address",
          "name": "spender",
          "type": "address"
        },
        {
          "indexed": false,
          "internalType": "uint256",
          "name": "value",
          "type": "uint256"
        }
      ],
      "name": "Approval",
      "type": "event"
    },
    {
      "anonymous": false,
      "inputs": [
        {
          "indexed": true,
          "internalType": "address",
          "name": "buyer",
          "type": "address"
        },
        {
          "indexed": false,
          "internalType": "uint256",
          "name": "amount",
          "type": "uint256"
        }
      ],
      "name": "Buy",
      "type": "event"
    },
    {
      "anonymous": false,
      "inputs": [
        {
          "indexed": true,
          "internalType": "address",
          "name": "previousOwner",
          "type": "address"
        },
        {
          "indexed": true,
          "internalType": "address",
          "name": "newOwner",
          "type": "address"
        }
      ],
      "name": "OwnershipTransferred",
      "type": "event"
    },
    {
      "anonymous": false,
      "inputs": [
        {
          "indexed": true,
          "internalType": "address",
          "name": "from",
          "type": "address"
        },
        {
          "indexed": true,
          "internalType": "address",
          "name": "to",
          "type": "address"
        },
        {
          "indexed": false,
          "internalType": "uint256",
          "name": "value",
          "type": "uint256"
        }
      ],
      "name": "Transfer",
      "type": "event"
    },
    {
      "inputs": [
        {
          "internalType": "address",
          "name": "owner",
          "type": "address"
        },
        {
          "internalType": "address",
          "name": "spender",
          "type": "address"
        }
      ],
      "name": "allowance",
      "outputs": [
        {
          "internalType": "uint256",
          "name": "",
          "type": "uint256"
        }
      ],
      "stateMutability": "view",
      "type": "function"
    },
    {
      "inputs": [
        {
          "internalType": "address",
          "name": "spender",
          "type": "address"
        },
        {
          "internalType": "uint256",
          "name": "amount",
          "type": "uint256"
        }
      ],
      "name": "approve",
      "outputs": [
        {
          "internalType": "bool",
          "name": "",
          "type": "bool"
        }
      ],
      "stateMutability": "nonpayable",
      "type": "function"
    },
    {
      "inputs": [
        {
          "internalType": "address",
          "name": "account",
          "type": "address"
        }
      ],
      "name": "balanceOf",
      "outputs": [
        {
          "internalType": "uint256",
          "name": "",
          "type": "uint256"
        }
      ],
      "stateMutability": "view",
      "type": "function"
    },
    {
      "inputs": [],
      "name": "buy",
      "outputs": [],
      "stateMutability": "payable",
      "type": "function"
    },
    {
      "inputs": [],
      "name": "currentSupply",
      "outputs": [
        {
          "internalType": "uint256",
          "name": "",
          "type": "uint256"
        }
      ],
      "stateMutability": "view",
      "type": "function"
    },
    {
      "inputs": [],
      "name": "decimals",
      "outputs": [
        {
          "internalType": "uint8",
          "name": "",
          "type": "uint8"
        }
      ],
      "stateMutability": "view",
      "type": "function"
    },
    {
      "inputs": [
        {
          "internalType": "address",
          "name": "spender",
          "type": "address"
        },
        {
          "internalType": "uint256",
          "name": "subtractedValue",
          "type": "uint256"
        }
      ],
      "name": "decreaseAllowance",
      "outputs": [
        {
          "internalType": "bool",
          "name": "",
          "type": "bool"
        }
      ],
      "stateMutability": "nonpayable",
      "type": "function"
    },
    {
      "inputs": [
        {
          "internalType": "address",
          "name": "spender",
          "type": "address"
        },
        {
          "internalType": "uint256",
          "name": "addedValue",
          "type": "uint256"
        }
      ],
      "name": "increaseAllowance",
      "outputs": [
        {
          "internalType": "bool",
          "name": "",
          "type": "bool"
        }
      ],
      "stateMutability": "nonpayable",
      "type": "function"
    },
    {
      "inputs": [
        {
          "internalType": "address",
          "name": "to",
          "type": "address"
        },
        {
          "internalType": "uint256",
          "name": "amount",
          "type": "uint256"
        }
      ],
      "name": "mint",
      "outputs": [],
      "stateMutability": "nonpayable",
      "type": "function"
    },
    {
      "inputs": [],
      "name": "name",
      "outputs": [
        {
          "internalType": "string",
          "name": "",
          "type": "string"
        }
      ],
      "stateMutability": "view",
      "type": "function"
    },
    {
      "inputs": [],
      "name": "owner",
      "outputs": [
        {
          "internalType": "address",
          "name": "",
          "type": "address"
        }
      ],
      "stateMutability": "view",
      "type": "function"
    },
    {
      "inputs": [],
      "name": "renounceOwnership",
      "outputs": [],
      "stateMutability": "nonpayable",
      "type": "function"
    },
    {
      "inputs": [],
      "name": "symbol",
      "outputs": [
        {
          "internalType": "string",
          "name": "",
          "type": "string"
        }
      ],
      "stateMutability": "view",
      "type": "function"
    },
    {
      "inputs": [],
      "name": "totalSupply",
      "outputs": [
        {
          "internalType": "uint256",
          "name": "",
          "type": "uint256"
        }
      ],
      "stateMutability": "view",
      "type": "function"
    },
    {
      "inputs": [
        {
          "internalType": "address",
          "name": "to",
          "type": "address"
        },
        {
          "internalType": "uint256",
          "name": "amount",
          "type": "uint256"
        }
      ],
      "name": "transfer",
      "outputs": [
        {
          "internalType": "bool",
          "name": "",
          "type": "bool"
        }
      ],
      "stateMutability": "nonpayable",
      "type": "function"
    },
    {
      "inputs": [
        {
          "internalType": "address",
          "name": "from",
          "type": "address"
        },
        {
          "internalType": "address",
          "name": "to",
          "type": "address"
        },
        {
          "internalType": "uint256",
          "name": "amount",
          "type": "uint256"
        }
      ],
      "name": "transferFrom",
      "outputs": [
        {
          "internalType": "bool",
          "name": "",
          "type": "bool"
        }
      ],
      "stateMutability": "nonpayable",
      "type": "function"
    },
    {
      "inputs": [
        {
          "internalType": "address",
          "name": "newOwner",
          "type": "address"
        }
      ],
      "name": "transferOwnership",
      "outputs": [],
      "stateMutability": "nonpayable",
      "type": "function"
    }
  ],
  "bytecode": "0x60806040523480156200001157600080fd5b506040518060400160405280600381526020017f54415000000000000000000000000000000000000000000000000000000000008152506040518060400160405280600381526020017f5441500000000000000000000000000000000000000000000000000000000000815250816003908051906020019062000096929190620001a6565b508060049080519060200190620000af929190620001a6565b505050620000d2620000c6620000d860201b60201c565b620000e060201b60201c565b620002bb565b600033905090565b6000600560009054906101000a900473ffffffffffffffffffffffffffffffffffffffff16905081600560006101000a81548173ffffffffffffffffffffffffffffffffffffffff021916908373ffffffffffffffffffffffffffffffffffffffff1602179055508173ffffffffffffffffffffffffffffffffffffffff168173ffffffffffffffffffffffffffffffffffffffff167f8be0079c531659141344cd1fd0a4f28419497f9722a3daafe3b4186f6b6457e060405160405180910390a35050565b828054620001b49062000285565b90600052602060002090601f016020900481019282620001d8576000855562000224565b82601f10620001f357805160ff191683800117855562000224565b8280016001018555821562000224579182015b828111156200022357825182559160200191906001019062000206565b5b50905062000233919062000237565b5090565b5b808211156200025257600081600090555060010162000238565b5090565b7f4e487b7100000000000000000000000000000000000000000000000000000000600052602260045260246000fd5b600060028204905060018216806200029e57607f821691505b60208210811415620002b557620002b462000256565b5b50919050565b611d5680620002cb6000396000f3fe6080604052600436106100fe5760003560e01c8063715018a611610095578063a457c2d711610064578063a457c2d714610339578063a6f2ae3a14610376578063a9059cbb14610380578063dd62ed3e146103bd578063f2fde38b146103fa576100fe565b8063715018a6146102a1578063771282f6146102b85780638da5cb5b146102e357806395d89b411461030e576100fe565b8063313ce567116100d1578063313ce567146101d357806339509351146101fe57806340c10f191461023b57806370a0823114610264576100fe565b806306fdde0314610103578063095ea7b31461012e57806318160ddd1461016b57806323b872dd14610196575b600080fd5b34801561010f57600080fd5b50610118610423565b604051610125919061127e565b60405180910390f35b34801561013a57600080fd5b5061015560048036038101906101509190611339565b6104b5565b6040516101629190611394565b60405180910390f35b34801561017757600080fd5b506101806104d8565b60405161018d91906113be565b60405180910390f35b3480156101a257600080fd5b506101bd60048036038101906101b891906113d9565b6104e2565b6040516101ca9190611394565b60405180910390f35b3480156101df57600080fd5b506101e8610511565b6040516101f59190611448565b60405180910390f35b34801561020a57600080fd5b5061022560048036038101906102209190611339565b61051a565b6040516102329190611394565b60405180910390f35b34801561024757600080fd5b50610262600480360381019061025d9190611339565b610551565b005b34801561027057600080fd5b5061028b60048036038101906102869190611463565b610620565b60405161029891906113be565b60405180910390f35b3480156102ad57600080fd5b506102b6610668565b005b3480156102c457600080fd5b506102cd61067c565b6040516102da91906113be565b60405180910390f35b3480156102ef57600080fd5b506102f8610682565b604051610305919061149f565b60405180910390f35b34801561031a57600080fd5b506103236106ac565b604051610330919061127e565b60405180910390f35b34801561034557600080fd5b50610360600480360381019061035b9190611339565b61073e565b60405161036d9190611394565b60405180910390f35b61037e6107b5565b005b34801561038c57600080fd5b506103a760048036038101906103a29190611339565b610929565b6040516103b49190611394565b60405180910390f35b3480156103c957600080fd5b506103e460048036038101906103df91906114ba565b61094c565b6040516103f191906113be565b60405180910390f35b34801561040657600080fd5b50610421600480360381019061041c9190611463565b6109d3565b005b60606003805461043290611529565b80601f016020809104026020016040519081016040528092919081815260200182805461045e90611529565b80156104ab5780601f10610480576101008083540402835291602001916104ab565b820191906000526020600020905b81548152906001019060200180831161048e57829003601f168201915b5050505050905090565b6000806104c0610a57565b90506104cd818585610a5f565b600191505092915050565b6000600254905090565b6000806104ed610a57565b90506104fa858285610c2a565b610505858585610cb6565b60019150509392505050565b60006012905090565b600080610525610a57565b9050610546818585610537858961094c565b610541919061158a565b610a5f565b600191505092915050565b610559610f37565b806404a817c800600654106105a3576040517f08c379a000000000000000000000000000000000000000000000000000000000815260040161059a9061162c565b60405180910390fd5b6006546404a817c8006105b6919061164c565b8111156105f8576040517f08c379a00000000000000000000000000000000000000000000000000000000081526004016105ef906116f2565b60405180910390fd5b816006600082825461060a919061158a565b9250508190555061061b8383610fb5565b505050565b60008060008373ffffffffffffffffffffffffffffffffffffffff1673ffffffffffffffffffffffffffffffffffffffff168152602001908152602001600020549050919050565b610670610f37565b61067a6000611115565b565b60065481565b6000600560009054906101000a900473ffffffffffffffffffffffffffffffffffffffff16905090565b6060600480546106bb90611529565b80601f01602080910402602001604051908101604052809291908181526020018280546106e790611529565b80156107345780601f1061070957610100808354040283529160200191610734565b820191906000526020600020905b81548152906001019060200180831161071757829003601f168201915b5050505050905090565b600080610749610a57565b90506000610757828661094c565b90508381101561079c576040517f08c379a000000000000000000000000000000000000000000000000000000000815260040161079390611784565b60405180910390fd5b6107a98286868403610a5f565b60019250505092915050565b6002346107c291906117d3565b6404a817c8006006541061080b576040517f08c379a00000000000000000000000000000000000000000000000000000000081526004016108029061162c565b60405180910390fd5b6006546404a817c80061081e919061164c565b811115610860576040517f08c379a0000000000000000000000000000000000000000000000000000000008152600401610857906116f2565b60405180910390fd5b600034116108a3576040517f08c379a000000000000000000000000000000000000000000000000000000000815260040161089a90611850565b60405180910390fd5b60006002346108b291906117d3565b905080600660008282546108c6919061158a565b925050819055506108d73382610fb5565b3373ffffffffffffffffffffffffffffffffffffffff167fe3d4187f6ca4248660cc0ac8b8056515bac4a8132be2eca31d6d0cc170722a7e8260405161091d91906113be565b60405180910390a25050565b600080610934610a57565b9050610941818585610cb6565b600191505092915050565b6000600160008473ffffffffffffffffffffffffffffffffffffffff1673ffffffffffffffffffffffffffffffffffffffff16815260200190815260200160002060008373ffffffffffffffffffffffffffffffffffffffff1673ffffffffffffffffffffffffffffffffffffffff16815260200190815260200160002054905092915050565b6109db610f37565b600073ffffffffffffffffffffffffffffffffffffffff168173ffffffffffffffffffffffffffffffffffffffff161415610a4b576040517f08c379a0000000000000000000000000000000000000000000000000000000008152600401610a42906118e2565b60405180910390fd5b610a5481611115565b50565b600033905090565b600073ffffffffffffffffffffffffffffffffffffffff168373ffffffffffffffffffffffffffffffffffffffff161415610acf576040517f08c379a0000000000000000000000000000000000000000000000000000000008152600401610ac690611974565b60405180910390fd5b600073ffffffffffffffffffffffffffffffffffffffff168273ffffffffffffffffffffffffffffffffffffffff161415610b3f576040517f08c379a0000000000000000000000000000000000000000000000000000000008152600401610b3690611a06565b60405180910390fd5b80600160008573ffffffffffffffffffffffffffffffffffffffff1673ffffffffffffffffffffffffffffffffffffffff16815260200190815260200160002060008473ffffffffffffffffffffffffffffffffffffffff1673ffffffffffffffffffffffffffffffffffffffff168152602001908152602001600020819055508173ffffffffffffffffffffffffffffffffffffffff168373ffffffffffffffffffffffffffffffffffffffff167f8c5be1e5ebec7d5bd14f71427d1e84f3dd0314c0f7b2291e5b200ac8c7c3b92583604051610c1d91906113be565b60405180910390a3505050565b6000610c36848461094c565b90507fffffffffffffffffffffffffffffffffffffffffffffffffffffffffffffffff8114610cb05781811015610ca2576040517f08c379a0000000000000000000000000000000000000000000000000000000008152600401610c9990611a72565b60405180910390fd5b610caf8484848403610a5f565b5b50505050565b600073ffffffffffffffffffffffffffffffffffffffff168373ffffffffffffffffffffffffffffffffffffffff161415610d26576040517f08c379a0000000000000000000000000000000000000000000000000000000008152600401610d1d90611b04565b60405180910390fd5b600073ffffffffffffffffffffffffffffffffffffffff168273ffffffffffffffffffffffffffffffffffffffff161415610d96576040517f08c379a0000000000000000000000000000000000000000000000000000000008152600401610d8d90611b96565b60405180910390fd5b610da18383836111db565b60008060008573ffffffffffffffffffffffffffffffffffffffff1673ffffffffffffffffffffffffffffffffffffffff16815260200190815260200160002054905081811015610e27576040517f08c379a0000000000000000000000000000000000000000000000000000000008152600401610e1e90611c28565b60405180910390fd5b8181036000808673ffffffffffffffffffffffffffffffffffffffff1673ffffffffffffffffffffffffffffffffffffffff16815260200190815260200160002081905550816000808573ffffffffffffffffffffffffffffffffffffffff1673ffffffffffffffffffffffffffffffffffffffff1681526020019081526020016000206000828254610eba919061158a565b925050819055508273ffffffffffffffffffffffffffffffffffffffff168473ffffffffffffffffffffffffffffffffffffffff167fddf252ad1be2c89b69c2b068fc378daa952ba7f163c4a11628f55a4df523b3ef84604051610f1e91906113be565b60405180910390a3610f318484846111e0565b50505050565b610f3f610a57565b73ffffffffffffffffffffffffffffffffffffffff16610f5d610682565b73ffffffffffffffffffffffffffffffffffffffff1614610fb3576040517f08c379a0000000000000000000000000000000000000000000000000000000008152600401610faa90611c94565b60405180910390fd5b565b600073ffffffffffffffffffffffffffffffffffffffff168273ffffffffffffffffffffffffffffffffffffffff161415611025576040517f08c379a000000000000000000000000000000000000000000000000000000000815260040161101c90611d00565b60405180910390fd5b611031600083836111db565b8060026000828254611043919061158a565b92505081905550806000808473ffffffffffffffffffffffffffffffffffffffff1673ffffffffffffffffffffffffffffffffffffffff1681526020019081526020016000206000828254611098919061158a565b925050819055508173ffffffffffffffffffffffffffffffffffffffff16600073ffffffffffffffffffffffffffffffffffffffff167fddf252ad1be2c89b69c2b068fc378daa952ba7f163c4a11628f55a4df523b3ef836040516110fd91906113be565b60405180910390a3611111600083836111e0565b5050565b6000600560009054906101000a900473ffffffffffffffffffffffffffffffffffffffff16905081600560006101000a81548173ffffffffffffffffffffffffffffffffffffffff021916908373ffffffffffffffffffffffffffffffffffffffff1602179055508173ffffffffffffffffffffffffffffffffffffffff168173ffffffffffffffffffffffffffffffffffffffff167f8be0079c531659141344cd1fd0a4f28419497f9722a3daafe3b4186f6b6457e060405160405180910390a35050565b505050565b505050565b600081519050919050565b600082825260208201905092915050565b60005b8381101561121f578082015181840152602081019050611204565b8381111561122e576000848401525b50505050565b6000601f19601f8301169050919050565b6000611250826111e5565b61125a81856111f0565b935061126a818560208601611201565b61127381611234565b840191505092915050565b600060208201905081810360008301526112988184611245565b905092915050565b600080fd5b600073ffffffffffffffffffffffffffffffffffffffff82169050919050565b60006112d0826112a5565b9050919050565b6112e0816112c5565b81146112eb57600080fd5b50565b6000813590506112fd816112d7565b92915050565b6000819050919050565b61131681611303565b811461132157600080fd5b50565b6000813590506113338161130d565b92915050565b600080604083850312156113505761134f6112a0565b5b600061135e858286016112ee565b925050602061136f85828601611324565b9150509250929050565b60008115159050919050565b61138e81611379565b82525050565b60006020820190506113a96000830184611385565b92915050565b6113b881611303565b82525050565b60006020820190506113d360008301846113af565b92915050565b6000806000606084860312156113f2576113f16112a0565b5b6000611400868287016112ee565b9350506020611411868287016112ee565b925050604061142286828701611324565b9150509250925092565b600060ff82169050919050565b6114428161142c565b82525050565b600060208201905061145d6000830184611439565b92915050565b600060208284031215611479576114786112a0565b5b6000611487848285016112ee565b91505092915050565b611499816112c5565b82525050565b60006020820190506114b46000830184611490565b92915050565b600080604083850312156114d1576114d06112a0565b5b60006114df858286016112ee565b92505060206114f0858286016112ee565b9150509250929050565b7f4e487b7100000000000000000000000000000000000000000000000000000000600052602260045260246000fd5b6000600282049050600182168061154157607f821691505b60208210811415611555576115546114fa565b5b50919050565b7f4e487b7100000000000000000000000000000000000000000000000000000000600052601160045260246000fd5b600061159582611303565b91506115a083611303565b9250827fffffffffffffffffffffffffffffffffffffffffffffffffffffffffffffffff038211156115d5576115d461155b565b5b828201905092915050565b7f416c72656164792072656163686564206d617820737570706c79000000000000600082015250565b6000611616601a836111f0565b9150611621826115e0565b602082019050919050565b6000602082019050818103600083015261164581611609565b9050919050565b600061165782611303565b915061166283611303565b9250828210156116755761167461155b565b5b828203905092915050565b7f52657175657374656420616d6f756e7420697320686967686572207468616e2060008201527f617661696c61626c6520737570706c7900000000000000000000000000000000602082015250565b60006116dc6030836111f0565b91506116e782611680565b604082019050919050565b6000602082019050818103600083015261170b816116cf565b9050919050565b7f45524332303a2064656372656173656420616c6c6f77616e63652062656c6f7760008201527f207a65726f000000000000000000000000000000000000000000000000000000602082015250565b600061176e6025836111f0565b915061177982611712565b604082019050919050565b6000602082019050818103600083015261179d81611761565b9050919050565b7f4e487b7100000000000000000000000000000000000000000000000000000000600052601260045260246000fd5b60006117de82611303565b91506117e983611303565b9250826117f9576117f86117a4565b5b828204905092915050565b7f4e6f2076616c7565207265636569766564000000000000000000000000000000600082015250565b600061183a6011836111f0565b915061184582611804565b602082019050919050565b600060208201905081810360008301526118698161182d565b9050919050565b7f4f776e61626c653a206e6577206f776e657220697320746865207a65726f206160008201527f6464726573730000000000000000000000000000000000000000000000000000602082015250565b60006118cc6026836111f0565b91506118d782611870565b604082019050919050565b600060208201905081810360008301526118fb816118bf565b9050919050565b7f45524332303a20617070726f76652066726f6d20746865207a65726f2061646460008201527f7265737300000000000000000000000000000000000000000000000000000000602082015250565b600061195e6024836111f0565b915061196982611902565b604082019050919050565b6000602082019050818103600083015261198d81611951565b9050919050565b7f45524332303a20617070726f766520746f20746865207a65726f20616464726560008201527f7373000000000000000000000000000000000000000000000000000000000000602082015250565b60006119f06022836111f0565b91506119fb82611994565b604082019050919050565b60006020820190508181036000830152611a1f816119e3565b9050919050565b7f45524332303a20696e73756666696369656e7420616c6c6f77616e6365000000600082015250565b6000611a5c601d836111f0565b9150611a6782611a26565b602082019050919050565b60006020820190508181036000830152611a8b81611a4f565b9050919050565b7f45524332303a207472616e736665722066726f6d20746865207a65726f20616460008201527f6472657373000000000000000000000000000000000000000000000000000000602082015250565b6000611aee6025836111f0565b9150611af982611a92565b604082019050919050565b60006020820190508181036000830152611b1d81611ae1565b9050919050565b7f45524332303a207472616e7366657220746f20746865207a65726f206164647260008201527f6573730000000000000000000000000000000000000000000000000000000000602082015250565b6000611b806023836111f0565b9150611b8b82611b24565b604082019050919050565b60006020820190508181036000830152611baf81611b73565b9050919050565b7f45524332303a207472616e7366657220616d6f756e742065786365656473206260008201527f616c616e63650000000000000000000000000000000000000000000000000000602082015250565b6000611c126026836111f0565b9150611c1d82611bb6565b604082019050919050565b60006020820190508181036000830152611c4181611c05565b9050919050565b7f4f776e61626c653a2063616c6c6572206973206e6f7420746865206f776e6572600082015250565b6000611c7e6020836111f0565b9150611c8982611c48565b602082019050919050565b60006020820190508181036000830152611cad81611c71565b9050919050565b7f45524332303a206d696e7420746f20746865207a65726f206164647265737300600082015250565b6000611cea601f836111f0565b9150611cf582611cb4565b602082019050919050565b60006020820190508181036000830152611d1981611cdd565b905091905056fea2646970667358221220d7bab8ee2e90d94cb2111a379c12b82b16387fa4cf1c76510865613a61e708be64736f6c634300080a0033",
  "linkReferences": {},
  "deployedLinkReferences": {}
}